:100000000C9463000C948B000C948B000C94810373
:100010000C9481030C9481030C948B000C948B0042
:100020000C948B000C948B000C948B000C948B0024
:100030000C948B000C948B000C948B000C948B0014
:100040000C94DF020C948B000C944F030C94290346
:100050000C948B000C948B000C948B000C948B00F4
:100060000C948B000C948B000000000024002700EF
:100070002A0000000008000201000003040700003D
:1000800000000000000000000000250028002B00F8
:1000900000000000230026002900040404040404D6
:1000A0000404020202020202030303030303010227
:1000B00004081020408001020408102001020408F6
:1000C0001020FB03E90511241FBECFEFD8E0DEBFEF
:1000D000CDBF11E0A0E0B1E0E6E6FCE002C0059093
:1000E0000D92A234B107D9F722E0A2E4B1E001C039
:1000F0001D92AB34B207E1F710E0C2E6D0E004C0D5
:100100002197FE010E941B06C136D107C9F70E9444
:10011000A6040C9426060C940000CF92DF92EF9276
:10012000FF920F931F93CF93DF936C017A018B01A2
:10013000C0E0D0E0CE15DF0589F0D8016D918D01CA
:10014000D601ED91FC910190F081E02DC601099559
:10015000892B11F47E0102C02196ECCFC701DF91FB
:10016000CF911F910F91FF90EF90DF90CF90089566
:10017000FC01918D828D981761F0828DDF01A80FAF
:10018000B11D5D968C91928D9F5F9F73928F90E0D1
:1001900008958FEF9FEF0895FC01918D828D981740
:1001A00031F0828DE80FF11D858D90E008958FEF7D
:1001B0009FEF0895FC01918D228D892F90E0805C46
:1001C0009F4F821B91098F73992708958FE891E0C3
:1001D0000E94DA0021E0892B09F420E0822F0895A3
:1001E000FC01848DDF01A80FB11DA35ABF4F2C91D4
:1001F000848D90E001968F739927848FA689B789A3
:100200002C93A089B1898C9180648C93938D848D7B
:10021000981306C00288F389E02D80818F7D80834A
:100220000895EF92FF920F931F93CF93DF93EC010A
:1002300081E0888F9B8D8C8D981305C0E889F989A2
:10024000808185FD24C0F62E0B8D10E00F5F1F4FBF
:100250000F731127E02E8C8DE8120CC00FB607FC2F
:10026000FACFE889F989808185FFF5CFCE010E9418
:10027000F000F1CF8B8DFE01E80FF11DE35AFF4F27
:10028000F0820B8FEA89FB898081806207C0EE894A
:10029000FF896083E889F98980818064808381E0B7
:1002A00090E0DF91CF911F910F91FF90EF90089513
:1002B000CF93DF93EC01888D8823C9F0EA89FB890D
:1002C000808185FD05C0A889B9898C9186FD0FC004
:1002D0000FB607FCF5CF808185FFF2CFA889B989D9
:1002E0008C9185FFEDCFCE010E94F000E7CFDF912A
:1002F000CF91089580E090E0892B29F00E94E600DC
:1003000081110C940000089590E0FC01EE58FF4F1D
:100310003491FC01E255FF4F2491FC01E656FF4F5A
:10032000E491EE2309F43BC0332339F1333091F0EB
:1003300038F43130A9F0323001F584B58F7D12C028
:10034000373091F03830A1F03430B9F4809180002A
:100350008F7D03C0809180008F77809380000DC0D7
:1003600084B58F7784BD09C08091B0008F7703C0BA
:100370008091B0008F7D8093B000F0E0EE0FFF1F02
:10038000EA57FF4FA591B4918FB7F894EC916111A2
:1003900003C020952E2301C02E2B2C938FBF0895D0
:1003A000CF93DF9390E0FC01E255FF4F2491FC01D5
:1003B000E656FF4F8491882361F190E0880F991FE2
:1003C000FC01E859FF4FC591D491FC01EA57FF4F5A
:1003D000A591B491611109C09FB7F89488812095C7
:1003E00082238883EC912E230BC0623061F49FB787
:1003F000F8943881822F809583238883EC912E2B6B
:100400002C939FBF06C08FB7F894E8812E2B2883CA
:100410008FBFDF91CF9108952091840130918501A4
:100420002817390771F49091820180918301981700
:1004300041F0E0918201F0E0EE5BFE4F808190E0C0
:1004400008958FEF9FEF089508951F93CF93DF9343
:10045000DC015C962D913C915D972115310539F4B5
:1004600081E090E013969C938E9312973DC0519635
:10047000ED91FC91529750969C915097892F8095C1
:100480001FB75E964C915E9741FB772770F941FD4F
:100490006095F8944081772311F0492B01C04823DF
:1004A0004083E9012197F1F748E0508160FF02C0E5
:1004B000592B01C058235083E9012197F1F7669524
:1004C000415099F7772321F090818923808303C0DD
:1004D0008081982B90831FBF5C968D919C915D9736
:1004E0000197F1F721E030E0C901DF91CF911F9131
:1004F000089520918401309185012817390771F4FE
:10050000809183012091820190E0805C9F4F821B4B
:10051000910960E470E00E94F305089580E090E0A6
:100520000895209184013091850128173907B9F485
:100530009091820180918301981789F0E091820166
:10054000F0E0EE5BFE4F80812091820130E02F5F72
:100550003F4F2F7333272093820190E008958FEF50
:100560009FEF0895E0918401F0918501E817F90764
:1005700069F4A389B4899C918589809589238C939A
:10058000109285011092840181E0089580E0089521
:100590000E9421066115710579F0FB010190002090
:1005A000E9F73197AF01461B570BDC01ED91FC9148
:1005B0000280F381E02D099480E090E008951F927D
:1005C0000F920FB60F9211242F933F938F939F9307
:1005D000AF93BF9380918B0190918C01A0918D017D
:1005E000B0918E0130918A0123E0230F2D3720F442
:1005F0000196A11DB11D05C026E8230F0296A11D7D
:10060000B11D20938A0180938B0190938C01A0935C
:100610008D01B0938E018091860190918701A09108
:100620008801B09189010196A11DB11D80938601B9
:1006300090938701A0938801B0938901BF91AF91F6
:100640009F918F913F912F910F900FBE0F901F9010
:1006500018951F920F920FB60F9211242F933F936C
:100660004F935F936F937F938F939F93AF93BF93BA
:10067000EF93FF938FE891E00E94F000FF91EF91DC
:10068000BF91AF919F918F917F916F915F914F91AA
:100690003F912F910F900FBE0F901F9018951F92B2
:1006A0000F920FB60F9211242F938F939F93EF9376
:1006B000FF93E0919F01F091A0018081E091A5015D
:1006C000F091A60182FD12C090818091A8018F5FF8
:1006D0008F732091A901821751F0E091A801F0E0F9
:1006E000E157FE4F958F8093A80101C08081FF9153
:1006F000EF919F918F912F910F900FBE0F901F90B0
:1007000018951F920F920FB60F9211242F933F93BB
:100710004F935F936F937F938F939F93AF93BF9309
:10072000EF93FF93E0918401F0918501309709F4F4
:1007300051C0968DA685B785858591FF04C09C9193
:10074000892329F447C09C91892309F043C0A389D8
:10075000B4899C918589809589238C938689978912
:100760000197F1F7608D718DA685B785558538E0C5
:1007700020E0CB010197F1F7822F90E095958795C6
:10078000282F4C91452309F02068315091F7868D30
:1007900081FD20958091830190E001968F739927C8
:1007A00030918201381749F0A0918301B0E0AE5B2F
:1007B000BE4F2C938093830103C0868D8160868F0A
:1007C000828D938D0197F1F7A389B4899C918589D6
:1007D000892B8C93FF91EF91BF91AF919F918F9156
:1007E0007F916F915F914F913F912F910F900FBE2D
:1007F0000F901F901895109292011092910188EE1F
:1008000093E0A0E0B0E08093930190939401A093D3
:100810009501B093960124E031E03093900120934C
:100820008F0125EC30E030939C0120939B0124EC58
:1008300030E030939E0120939D0120EC30E0309316
:10084000A00120939F0121EC30E03093A20120937E
:10085000A10122EC30E03093A4012093A30126EC07
:1008600030E03093A6012093A5011092A8011092C8
:10087000A9011092AA011092AB0110922F021092BE
:100880002E028093300290933102A0933202B093F3
:10089000330284E191E090932D0280932C02109218
:1008A00043021092420210924502109244021092AA
:1008B000470210924602109249021092480260913B
:1008C0004A026E7F6D7F60934A026695617081E097
:1008D00068278BE00E94840161E08BE00E94D001D8
:1008E000E9EBF0E0E491E0933C02E5EAF0E0E4912A
:1008F000F0E0EE0FFF1FEA57FF4F85919491909320
:100900003E0280933D0260E08AE00E94D001809127
:100910004A0281FD04C061E08AE00E9484018AE00D
:1009200080933802E8EBF0E0E491E0933902E4EAE6
:10093000F0E0E491F0E0EE0FFF1FE057FF4F8591EC
:10094000949190933B0280933A020895789484B5F1
:10095000826084BD84B5816084BD85B5826085BDBB
:1009600085B5816085BD80916E00816080936E0049
:10097000109281008091810082608093810080913B
:1009800081008160809381008091800081608093EC
:1009900080008091B10084608093B1008091B000AC
:1009A00081608093B00080917A00846080937A00A7
:1009B00080917A00826080937A0080917A008160D1
:1009C00080937A0080917A00806880937A001092F8
:1009D000C10061E08DE00E94D001E0919F01F091A3
:1009E000A00182E08083E0919F01F091A00110823C
:1009F000E0919B01F0919C011082E0919D01F091AA
:100A00009E0180E180831092A701E091A301F09103
:100A1000A40186E08083E091A101F091A201808190
:100A200080618083E091A101F091A20180818860C2
:100A30008083E091A101F091A20180818068808390
:100A4000E091A101F091A20180818F7D808360E21D
:100A500071E08FE891E00E94CA0260E371E08FE8E4
:100A600091E00E94CA021092470210924602109230
:100A700045021092440210924302109242028EE309
:100A800093E0909349028093480290913802963106
:100A900008F057C02DE831E0309343022093420222
:100AA0002CE333E0309345022093440224E632E005
:100AB000309347022093460220916800983050F00E
:100AC00031E09E3008F430E081E001C0880F3A95B3
:100AD000EAF701C084E0822B80936800983038F0F8
:100AE0009E3040F0963148F020E030E008C02DE61E
:100AF00030E005C02BE630E002C02CE630E0309359
:100B0000400220933F02983030F481E001C0880F0A
:100B10009A95EAF70EC0292F30E09E3018F428503D
:100B2000310902C02E50310981E001C0880F2A9599
:100B3000EAF780934102809148029091490201971F
:100B4000F1F78091460290914702892B21F1809123
:100B500084019091850122E08C329207E1F00097A8
:100B600011F00E94B20280914A028E7F80934A0265
:100B700010928301109282018CE292E090938501A1
:100B800080938401E0913F02F09140029081809136
:100B90004102892B808363E371E08CE292E00E9442
:100BA000CA0260E371E08CE292E00E94CA028CE229
:100BB00092E00E947902019749F48CE292E00E944F
:100BC0009102682F8FE891E00E9411010E947A0142
:100BD000EECF84E191E090932D0280932C028CE281
:100BE00092E00C94B20297FB072E16F4009407D003
:100BF00077FD09D00E94070607FC05D03EF49095CA
:100C000081959F4F0895709561957F4F0895AA1B18
:100C1000BB1B51E107C0AA1FBB1FA617B70710F0E7
:100C2000A61BB70B881F991F5A95A9F78095909519
:100C3000BC01CD010895EE0FFF1F0590F491E02D4A
:100C4000099481E090E0F8940C94260610E0C2E646
:100C5000D0E004C0FE010E941B062196C336D107D6
:060C6000C9F7F894FFCF74
:100C66000000000011018D00DA00B800CC00580128
:100C76000000000025028D00790291020C02240278
:100C8600476F6F646E69676874206D6F6F6E2100C1
:100C96000D0A0048656C6C6F2C20776F726C643F90
:020CA60000004C
:107E0000112484B714BE81FFF0D085E080938100F7
:107E100082E08093C00088E18093C10086E0809377
:107E2000C20080E18093C4008EE0C9D0259A86E02C
:107E300020E33CEF91E0309385002093840096BBD3
:107E4000B09BFECF1D9AA8958150A9F7CC24DD24C4
:107E500088248394B5E0AB2EA1E19A2EF3E0BF2EE7
:107E6000A2D0813461F49FD0082FAFD0023811F036
:107E7000013811F484E001C083E08DD089C08234E0
:107E800011F484E103C0853419F485E0A6D080C0E4
:107E9000853579F488D0E82EFF2485D0082F10E0AE
:107EA000102F00270E291F29000F111F8ED06801E7
:107EB0006FC0863521F484E090D080E0DECF843638
:107EC00009F040C070D06FD0082F6DD080E0C81688
:107ED00080E7D80618F4F601B7BEE895C0E0D1E017
:107EE00062D089930C17E1F7F0E0CF16F0E7DF06D8
:107EF00018F0F601B7BEE89568D007B600FCFDCFD4
:107F0000A601A0E0B1E02C9130E011968C91119780
:107F100090E0982F8827822B932B1296FA010C0160
:107F200087BEE89511244E5F5F4FF1E0A038BF0790
:107F300051F7F601A7BEE89507B600FCFDCF97BE46
:107F4000E89526C08437B1F42ED02DD0F82E2BD052
:107F50003CD0F601EF2C8F010F5F1F4F84911BD097
:107F6000EA94F801C1F70894C11CD11CFA94CF0C13
:107F7000D11C0EC0853739F428D08EE10CD085E9AC
:107F80000AD08FE07ACF813511F488E018D01DD067
:107F900080E101D065CF982F8091C00085FFFCCF94
:107FA0009093C60008958091C00087FFFCCF809118
:107FB000C00084FD01C0A8958091C6000895E0E648
:107FC000F0E098E1908380830895EDDF803219F02E
:107FD00088E0F5DFFFCF84E1DECF1F93182FE3DFCA
:107FE0001150E9F7F2DF1F91089580E0E8DFEE27F6
:047FF000FF270994CA
:027FFE00040479
:0400000300007E007B
:00000001FF
