:100000000C9464000C948C000C948C000C948C0068
:100010000C948C000C948C000C948C000C948C0030
:100020000C948C000C948C000C948C000C948C0020
:100030000C948C000C948C000C948C000C948C0010
:100040000C9448010C948C000C942A040C945C04CD
:100050000C948C000C948C000C948C000C948C00F0
:100060000C948C000C948C0000000008000201002D
:100070000003040700000000000000000102040863
:100080001020408001020408102001020408102002
:10009000040404040404040402020202020203032E
:1000A00003030303000000002300260029000000D2
:1000B0000000250028002B0000000000240027007D
:1000C0002A00B7008C04C30011241FBECFEFD8E074
:1000D000DEBFCDBF11E0A0E0B1E0E0EAF3E102C095
:1000E00005900D92AE36B107D9F722E0AEE6B1E049
:1000F00001C01D92A632B207E1F710E0C6ECD0E0D5
:1001000004C02297FE010E948707C23CD107C9F7AD
:100110000E9453070C94C3090C94000026E040E8A9
:1001200055E260E070E085E891E00E94C80366E077
:1001300071E085E891E00E94380560917A01709144
:100140007B014AE050E085E891E00E94ED0561E026
:100150008CE00E944D0261E08BE00E944D0260E065
:1001600082E00E944D0261E087E00C944D026FE551
:1001700071E084E791E00E94BB0666E271E08EE6E2
:1001800091E00C94BB068EE691E00E944D0684E758
:1001900091E00C944D06CF93DF9300D000D000D0B7
:1001A000CDB7DEB765E871E0CE0101960E94330657
:1001B000BE016F5F7F4F84E791E00E940707CE0189
:1001C00001960E944D0664E771E085E891E00E9487
:1001D000260561E08CE00E94860261E08BE00E94CF
:1001E000860282E00E94BC0290937B0180937A0198
:1001F0006CE271E085E891E00E94380560917A0137
:1002000070917B014AE050E085E891E00E94ED05A5
:1002100068EE73E080E090E00E94C10185E891E023
:100220000E94E502892B31F461E371E085E891E0F9
:100230000E94380560E08CE00E94860260E08BE05E
:100240000E94860268EE73E080E090E00E94C101A7
:1002500082E00E94BC0290937B0180937A0169E462
:1002600071E085E891E00E94380560917A01709113
:100270007B014AE050E085E891E00E94ED0526967A
:100280000FB6F894DEBF0FBECDBFDF91CF910895BA
:100290001F920F920FB60F9211242F933F938F93BB
:1002A0009F93AF93BF9380917D0190917E01A09128
:1002B0007F01B091800130917C0123E0230F2D3725
:1002C00020F40196A11DB11D05C026E8230F02965A
:1002D000A11DB11D20937C0180937D0190937E012F
:1002E000A0937F01B0938001809181019091820160
:1002F000A0918301B09184010196A11DB11D80934D
:10030000810190938201A0938301B0938401BF91F6
:10031000AF919F918F913F912F910F900FBE0F90B2
:100320001F9018952FB7F89460917D0170917E0110
:1003300080917F01909180012FBF08953FB7F8947D
:100340008091810190918201A0918301B0918401FB
:1003500026B5A89B05C02F3F19F00196A11DB11D20
:100360003FBF6627782F892F9A2F620F711D811D3D
:10037000911D42E0660F771F881F991F4A95D1F79C
:100380000895CF92DF92EF92FF92CF93DF936B01AC
:100390007C010E949E01EB01C114D104E104F1042F
:1003A00089F00E9462070E949E016C1B7D0B683ED3
:1003B000734090F381E0C81AD108E108F108C851F0
:1003C000DC4FEACFDF91CF91FF90EF90DF90CF909D
:1003D0000895789484B5826084BD84B5816084BDBD
:1003E00085B5826085BD85B5816085BDEEE6F0E0AE
:1003F000808181608083E1E8F0E01082808182600A
:100400008083808181608083E0E8F0E0808181608A
:100410008083E1EBF0E0808184608083E0EBF0E0BA
:10042000808181608083EAE7F0E08081846080835E
:100430008081826080838081816080838081806808
:1004400080831092C1000895833081F028F48130B8
:1004500099F08230A1F008958730A9F08830B9F082
:100460008430D1F4809180008F7D03C08091800022
:100470008F7780938000089584B58F7702C084B50C
:100480008F7D84BD08958091B0008F7703C08091E7
:10049000B0008F7D8093B0000895CF93DF9390E0FC
:1004A000FC01E458FF4F2491FC01E057FF4F849179
:1004B000882349F190E0880F991FFC01E854FF4F11
:1004C000A591B49182559F4FFC01C591D4919FB7DE
:1004D000611108C0F8948C91209582238C938881B7
:1004E00082230AC0623051F4F8948C91322F3095F7
:1004F00083238C938881822B888304C0F8948C9109
:10050000822B8C939FBFDF91CF9108950F931F9300
:10051000CF93DF931F92CDB7DEB7282F30E0F901DC
:10052000E859FF4F8491F901E458FF4F1491F90104
:10053000E057FF4F04910023C9F0882321F069831D
:100540000E9424026981E02FF0E0EE0FFF1FE255C8
:10055000FF4FA591B4919FB7F8948C91611103C09E
:100560001095812301C0812B8C939FBF0F90DF9149
:10057000CF911F910F910895CF93DF93282F30E0F3
:10058000F901E859FF4F8491F901E458FF4FD491E4
:10059000F901E057FF4FC491CC2391F081110E94E3
:1005A0002402EC2FF0E0EE0FFF1FEC55FF4FA5915A
:1005B000B4912C912D2381E090E021F480E002C0E1
:1005C00080E090E0DF91CF910895FC01818D228D34
:1005D00090E0805C9F4F821B91098F73992708954B
:1005E000FC01918D828D981731F0828DE80FF11DFD
:1005F000858D90E008958FEF9FEF0895FC01918D18
:10060000828D981761F0828DDF01A80FB11D5D9674
:100610008C91928D9F5F9F73928F90E008958FEFE2
:100620009FEF089582E894E0892B49F080E090E004
:10063000892B29F00E94820481110C9400000895F6
:10064000FC01848DDF01A80FB11DA35ABF4F2C916F
:10065000848D90E001968F739927848FA689B7893E
:100660002C93A089B1898C9180648C93938D848D17
:10067000981306C00288F389E02D80818F7D8083E6
:100680000895CF93DF93EC01888D8823C9F0EA8920
:10069000FB89808185FD05C0A889B9898C9186FD7B
:1006A0000FC00FB607FCF5CF808185FFF2CFA88978
:1006B000B9898C9185FFEDCFCE010E942003E7CF51
:1006C000DF91CF910895CF92DF92FF920F931F9306
:1006D000CF93DF931F92CDB7DEB76C0181E0D601D7
:1006E00058968C9358975B969C915B975C968C91EF
:1006F0005C97981307C05096ED91FC9151978081BB
:1007000085FD2EC0F601038D10E00F5F1F4F0F73A4
:100710001127F02EF601848DF81211C00FB607FCD8
:10072000F9CFD6015096ED91FC915197808185FFCC
:10073000F1CFC60169830E9420036981EBCF838DCD
:10074000E80FF11DE35AFF4F6083D6015B960C93CF
:100750005B975296ED91FC915397808180620CC01B
:10076000D6015696ED91FC91579760835096ED9186
:10077000FC91519780818064808381E090E00F90AC
:10078000DF91CF911F910F91FF90DF90CF9008954F
:10079000BF92CF92DF92EF92FF92CF93DF93EC0163
:1007A0006A017B01B22EE889F98982E080834115D4
:1007B00081EE580761057105A1F060E079E08DE3F5
:1007C00090E0A70196010E94630721503109410979
:1007D00051095695479537952795211580E138079A
:1007E00098F0E889F989108260E874E88EE190E079
:1007F000A70196010E94630721503109410951095F
:100800005695479537952795EC85FD853083EE8580
:10081000FF852083188EEC89FD89B082EA89FB89E7
:10082000808180618083EA89FB8980818860808300
:10083000EA89FB89808180688083EA89FB898081DD
:100840008F7D8083DF91CF91FF90EF90DF90CF90ED
:10085000BF9008951F920F920FB60F9211242F93FD
:100860008F939F93EF93FF93E0919501F091960101
:100870008081E0919B01F0919C0182FD12C09081EA
:1008800080919E018F5F8F7320919F01821751F09D
:10089000E0919E01F0E0EB57FE4F958F80939E0113
:1008A00001C08081FF91EF919F918F912F910F90C7
:1008B0000FBE0F901F9018951F920F920FB60F92B8
:1008C00011242F933F934F935F936F937F938F9355
:1008D0009F93AF93BF93EF93FF9385E891E00E94BE
:1008E0002003FF91EF91BF91AF919F918F917F91E5
:1008F0006F915F914F913F912F910F900FBE0F908D
:100900001F90189585E891E00E94E50221E0892B6F
:1009100009F420E0822F0895109288011092870137
:1009200088EE93E0A0E0B0E08093890190938A0183
:10093000A0938B01B0938C0181E591E090938601A7
:100940008093850185EC90E09093920180939101D2
:1009500084EC90E0909394018093930180EC90E07C
:10096000909396018093950181EC90E0909398018B
:100970008093970182EC90E090939A018093990183
:1009800086EC90E090939C0180939B0110929E01D5
:1009900010929F011092A0011092A1010895CF9290
:1009A000DF92EF92FF920F931F93CF93DF937C011F
:1009B0006A01EB0100E010E00C151D0571F0699172
:1009C000D701ED91FC910190F081E02DC7010995CF
:1009D000892B19F00F5F1F4FEFCFC801DF91CF9127
:1009E0001F910F91FF90EF90DF90CF9008956115C8
:1009F000710581F0DB010D900020E9F7AD01415058
:100A00005109461B570BDC01ED91FC910280F381EB
:100A1000E02D099480E090E00895DC01ED91FC91D7
:100A2000DB0114964D915C9115976D917C9102803C
:100A3000F381E02D0994DC01ED91FC910190F081AE
:100A4000E02D09946DE571E00C94F7040F931F936A
:100A5000CF93DF93EC010E940D058C01CE010E9423
:100A60002205800F911FDF91CF911F910F91089563
:100A70000F931F93CF93DF93EC010E94F7048C0137
:100A8000CE010E942205800F911FDF91CF911F910F
:100A90000F9108958F929F92AF92BF92CF92DF9263
:100AA000EF92FF920F931F93CF93DF93CDB7DEB7F3
:100AB000A1970FB6F894DEBF0FBECDBF7C01C42E48
:100AC000E52FCB01D22E19A221E02D1510F02AE03E
:100AD000D22E8E010F5D1F4F8D2C912CA12CB12C8D
:100AE0006C2D7E2FA50194010E9463078C2DD29E50
:100AF00080191124015011098A3014F4805D01C05D
:100B0000895CF8018083211531054105510521F0EB
:100B1000C22EE32FCA01E4CFB801C7010E94F70437
:100B2000A1960FB6F894DEBF0FBECDBFDF91CF9177
:100B30001F910F91FF90EF90DF90CF90BF90AF90FB
:100B40009F908F900895CF92DF92EF92FF920F9334
:100B50001F93CF93DF93EC016A017B0121153105CF
:100B600079F4E881F9810190F081E02D642FDF9123
:100B7000CF911F910F91FF90EF90DF90CF9009944C
:100B80002A303105E9F477FF1AC06DE20E941B0597
:100B90008C0144275527BA014C195D096E097F095C
:100BA0002AE0CE010E944A05800F911FDF91CF916C
:100BB0001F910F91FF90EF90DF90CF9008952AE062
:100BC000B701A601CE01DF91CF911F910F91FF9048
:100BD000EF90DF90CF900C944A050F931F93CF9323
:100BE000DF93EC019A01AB01662757FD6095762FE4
:100BF0000E94A3058C01CE010E942205800F911F47
:100C0000DF91CF911F910F9108950F931F93CF9371
:100C1000DF93EC010E949201688779878A879B871E
:100C2000E881F9810680F781E02DCE01099597FFD3
:100C300015C00E949201088519852A853B85601B95
:100C4000710B820B930B0C811D812E813F816017EC
:100C500071078207930720F38FEF9FEFDF91CF910A
:100C60001F910F9108950F931F93CF93DF93EC0182
:100C70008B016FE571E00E94BB06C8010E9405066A
:100C800097FD05C0682FCE010E943F07F6CFCE0129
:100C9000DF91CF911F910F910895FC018081918187
:100CA0000C942308CF93DF93EC01888199810097FE
:100CB00011F00E942308198218821D821C821B8257
:100CC0001A82DF91CF9108950F931F93CF93DF93F3
:100CD000EC018B016F5F7F4F888199810E94B20880
:100CE000009731F0998388831B830A8381E001C0D8
:100CF00080E0DF91CF911F910F910895CF93DF9303
:100D0000EC0188819981892B29F08A819B81861742
:100D1000970760F4CE010E946406882341F08C811D
:100D20009D81892B19F4E881F981108281E0DF919E
:100D3000CF910895EF92FF920F931F93CF93DF937C
:100D4000EC017B018A01BA010E947E06811104C078
:100D5000CE010E94520607C01D830C83B701888113
:100D600099810E948509CE01DF91CF911F910F914A
:100D7000FF90EF900895FC0111821082138212827D
:100D8000158214826115710559F0FB010190002054
:100D9000E9F7AF0141505109461B570B0C949A06D5
:100DA00008950F931F93CF93DF938C01EB01FC0108
:100DB00080819181009799F0428153812C813D81FE
:100DC0004217530750F0688179810E9485098C8110
:100DD0009D81F8019583848313C00E942308888134
:100DE0009981F801918380838A819B819383828397
:100DF0008C819D8195838483198218821B821A823B
:100E00001D821C82DF91CF911F910F910895CF9386
:100E1000DF93EC018617970711F00E94D106CE01EF
:100E2000DF91CF910895EF92FF920F931F93CF938D
:100E3000DF93EC017B010C811D816115710511F4BB
:100E400080E016C04115510591F0040F151FB8013F
:100E50000E947E068823A1F3288139818C819D819F
:100E6000B701820F931F0E9485091D830C8381E0C7
:100E7000DF91CF911F910F91FF90EF900895CF9345
:100E8000DF9300D0CDB7DEB769831A8241E050E02E
:100E9000BE016F5F7F4F0E9413070F900F90DF918D
:100EA000CF91089508950E94E9010E9452070E947F
:100EB0008E00C2E1D3E00E94CB002097E1F30E94B4
:100EC0001203F9CF0895A1E21A2EAA1BBB1BFD0144
:100ED0000DC0AA1FBB1FEE1FFF1FA217B307E40719
:100EE000F50720F0A21BB30BE40BF50B661F771F71
:100EF000881F991F1A9469F7609570958095909551
:100F00009B01AC01BD01CF010895EE0FFF1F0590BD
:100F1000F491E02D0994CF93DF938230910510F482
:100F200082E090E0E0912402F091250220E030E0A0
:100F3000A0E0B0E0309739F140815181481759075E
:100F4000B8F04817590771F482819381109729F0FE
:100F500013969C938E9312972CC0909325028093A6
:100F6000240227C02115310531F04217530718F02C
:100F7000A901DB0101C0EF019A01BD01DF0102807F
:100F8000F381E02DD7CF21153105F9F0281B390B5E
:100F90002430310580F48A819B816115710521F02F
:100FA000FB019383828304C09093250280932402E3
:100FB000FE01329644C0FE01E20FF31F819391932C
:100FC00022503109398328833AC02091220230917E
:100FD0002302232B41F4209102013091030130932D
:100FE000230220932202209100013091010121155A
:100FF000310541F42DB73EB74091040150910501F0
:10100000241B350BE0912202F0912302E217F30733
:10101000A0F42E1B3F0B2817390778F0AC014E5F68
:101020005F4F2417350748F04E0F5F1F5093230280
:10103000409322028193919302C0E0E0F0E0CF015F
:10104000DF91CF910895CF93DF93009709F487C084
:10105000FC01329713821282C0912402D0912502A2
:10106000209781F420813181280F391F809122023D
:10107000909123028217930779F5F0932302E0936E
:1010800022026DC0DE0120E030E0AE17BF0750F451
:1010900012964D915C9113979D014115510509F1EF
:1010A000DA01F3CFB383A28340815181840F951F6E
:1010B0008A179B0771F48D919C911197840F951F4E
:1010C00002969183808312968D919C9113979383BE
:1010D00082832115310529F4F0932502E09324023F
:1010E0003EC0D9011396FC93EE9312974D915D91FA
:1010F000A40FB51FEA17FB0779F480819181840F53
:10110000951F0296D90111969C938E9382819381AB
:1011100013969C938E931297E0E0F0E08A819B8176
:10112000009719F0FE01EC01F9CFCE01029628815B
:101130003981820F931F20912202309123022817B8
:10114000390769F4309729F410922502109224028D
:1011500002C013821282D0932302C0932202DF9135
:10116000CF910895A0E0B0E0E8EBF8E00C9490098E
:10117000EC01CB01209719F40E948B07B8C0FE0147
:10118000E60FF71F9E0122503109E217F30708F41A
:10119000ACC0D9010D911C91119706171707B8F033
:1011A0000530110508F49FC0A801445051094617A5
:1011B000570708F498C002501109061B170B01933A
:1011C00011936D937C93CF010E9423088CC05B0127
:1011D000A01AB10A4E01800E911EA0912402B09176
:1011E0002502612C712C60E070E0109709F449C071
:1011F000A815B905C9F5ED90FC901197670142E07B
:10120000C40ED11CCA14DB0478F147018A189B086C
:10121000640142E0C40ED11C1296BC901297139642
:10122000AC91B5E0CB16D10440F0B282A383918299
:101230008082D9018D939C9309C00E5F1F4F0E0DC4
:101240001F1DF90111830083EB2DFA2F6115710524
:1012500031F0DB011396FC93EE93129744C0F093A8
:101260002502E09324023FC06D917C911197661690
:10127000770608F43B01BD0112960D90BC91A02D9C
:10128000B4CF609122027091230268157905E9F4C8
:1012900068167906D0F44091000150910101411582
:1012A000510541F44DB75EB760910401709105019D
:1012B000461B570BE417F507C0F4F0932302E093A5
:1012C0002202F901918380830EC00E948B077C016A
:1012D000009759F0A801BE010E947C09CE010E942E
:1012E0002308C70104C0CE0102C080E090E0CDB762
:1012F000DEB7EEE00C94AC09FB01DC0102C001900A
:101300000D9241505040D8F70895FB01DC01019047
:101310000D920020E1F708952F923F924F925F9235
:101320006F927F928F929F92AF92BF92CF92DF92F5
:10133000EF92FF920F931F93CF93DF93CDB7DEB75A
:10134000CA1BDB0B0FB6F894DEBF0FBECDBF0994EE
:101350002A88398848885F846E847D848C849B8445
:10136000AA84B984C884DF80EE80FD800C811B8153
:10137000AA81B981CE0FD11D0FB6F894DEBF0FBE82
:10138000CDBFED01089510E0C6ECD0E004C0FE0131
:101390000E9487072296C83CD107C9F7F894FFCF6F
:1013A00000002602800057454C434F4D4520544FC6
:1013B00020574F524C44204F4620535249414C2015
:1013C0005052494E5400564950494E00686967686A
:1013D00000696E736964652053657269616C206190
:1013E0007661696C61626C65006C6F77000000006B
:1013F000006303CF04E502FE02F00241030D0A0080
:0E1400006E616E00696E66006F7666002E00EB
:107E0000112484B714BE81FFF0D085E080938100F7
:107E100082E08093C00088E18093C10086E0809377
:107E2000C20080E18093C4008EE0C9D0259A86E02C
:107E300020E33CEF91E0309385002093840096BBD3
:107E4000B09BFECF1D9AA8958150A9F7CC24DD24C4
:107E500088248394B5E0AB2EA1E19A2EF3E0BF2EE7
:107E6000A2D0813461F49FD0082FAFD0023811F036
:107E7000013811F484E001C083E08DD089C08234E0
:107E800011F484E103C0853419F485E0A6D080C0E4
:107E9000853579F488D0E82EFF2485D0082F10E0AE
:107EA000102F00270E291F29000F111F8ED06801E7
:107EB0006FC0863521F484E090D080E0DECF843638
:107EC00009F040C070D06FD0082F6DD080E0C81688
:107ED00080E7D80618F4F601B7BEE895C0E0D1E017
:107EE00062D089930C17E1F7F0E0CF16F0E7DF06D8
:107EF00018F0F601B7BEE89568D007B600FCFDCFD4
:107F0000A601A0E0B1E02C9130E011968C91119780
:107F100090E0982F8827822B932B1296FA010C0160
:107F200087BEE89511244E5F5F4FF1E0A038BF0790
:107F300051F7F601A7BEE89507B600FCFDCF97BE46
:107F4000E89526C08437B1F42ED02DD0F82E2BD052
:107F50003CD0F601EF2C8F010F5F1F4F84911BD097
:107F6000EA94F801C1F70894C11CD11CFA94CF0C13
:107F7000D11C0EC0853739F428D08EE10CD085E9AC
:107F80000AD08FE07ACF813511F488E018D01DD067
:107F900080E101D065CF982F8091C00085FFFCCF94
:107FA0009093C60008958091C00087FFFCCF809118
:107FB000C00084FD01C0A8958091C6000895E0E648
:107FC000F0E098E1908380830895EDDF803219F02E
:107FD00088E0F5DFFFCF84E1DECF1F93182FE3DFCA
:107FE0001150E9F7F2DF1F91089580E0E8DFEE27F6
:047FF000FF270994CA
:027FFE00040479
:0400000300007E007B
:00000001FF
