:100000000C9464000C948C000C948C000C948C0068
:100010000C948C000C948C000C948C000C948C0030
:100020000C948C000C948C000C948C000C948C0020
:100030000C948C000C948C000C948C000C948C0010
:100040000C94B7020C948C000C9499050C94CB057D
:100050000C948C000C948C000C948C000C948C00F0
:100060000C948C000C948C0000000008000201002D
:100070000003040700000000000000000102040863
:100080001020408001020408102001020408102002
:10009000040404040404040402020202020203032E
:1000A00003030303000000002300260029000000D2
:1000B0000000250028002B0000000000240027007D
:1000C0002A002E02FB053A0211241FBECFEFD8E012
:1000D000DEBFCDBF13E0A0E0B1E0EEECF6E102C080
:1000E00005900D92A837B107D9F724E0A8E7B3E04F
:1000F00001C01D92A433B207E1F710E0C6ECD0E0D6
:1001000004C02297FE010E941509C23CD107C9F71D
:100110000E94E1080C945A0B0C940000CF93DF93DB
:1001200080910C010E942B04909389038093880393
:100130006EE071E083E993E00E94A7064AE050E098
:1001400060E070E083E993E00E945C07C09188035F
:10015000D09189036DE371E083E993E00E94A706E3
:100160004AE050E0BE0183E993E00E945C07C130A1
:10017000D105C9F480917A0390917B030196909305
:100180007B0380937A0362E571E083E993E00E9448
:10019000A70660917A0370917B034AE050E083E9FF
:1001A00093E00E945C0760E070E0CB01CE01DF913C
:1001B000CF910895CF92DF92EF92FF926BE272E0BF
:1001C00083E993E00E94A70661E0809106010E9406
:1001D000F50361E0809108010E94F50380910C0114
:1001E0000E942B0490938903809388036EE072E051
:1001F00083E993E00E94A7066091880370918903C8
:100200004AE050E083E993E00E945C0768EE73E007
:1002100080E090E00E9430030E948E006B017C0120
:100220006FE372E083E993E00E94A7064AE050E0A2
:10023000B60183E993E00E945C074AE050E0B70111
:1002400083E993E00E945C0769E472E083E993E04C
:100250000E94A7064AE050E0B60183E993E00E94BD
:100260005C0780917A0390917B03019771F58091EF
:10027000880390918903019789F461E080910A01D4
:100280000E94F50363E871E083E993E00E94A7060A
:1002900068EE73E080E090E00E9430038091880374
:1002A00090918903892B89F460E080910A010E9472
:1002B000F50369EB71E083E993E00E94A70668EE1D
:1002C00073E080E090E00E94300380917A03909187
:1002D0007B030297C1F58091880390918903019770
:1002E00089F460E080910A010E94F50363E871E0FF
:1002F00083E993E00E94A70668EE73E080E090E057
:100300000E9430038091880390918903892B89F49E
:1003100060E080910A010E94F50369EB71E083E9D6
:1003200093E00E94A70668EE73E080E090E00E94F0
:10033000300310927B0310927A036DE772E083E939
:1003400093E00E94A706809188039091890301970A
:1003500089F461E080910A010E94F50363E871E08D
:1003600083E993E00E94A70668EE73E080E090E0E6
:100370000E9430038091880390918903892BA9F40E
:1003800060E080910A010E94F50369EB71E083E966
:1003900093E00E94A70668EE73E080E090E0FF9093
:1003A000EF90DF90CF900C943003FF90EF90DF90B0
:1003B000CF900895CF93DF9300D000D000D0CDB779
:1003C000DEB763E973E0CE0101960E94A207BE0189
:1003D0006F5F7F4F82E893E00E947608CE0101961E
:1003E0000E94BC0762E873E083E993E00E949506EF
:1003F00026960FB6F894DEBF0FBECDBFDF91CF912A
:10040000089526E040E855E260E070E083E993E07B
:100410000E94370569EB72E083E993E00E94A7062A
:1004200060918803709189034AE050E083E993E08A
:100430000E945C0761E0809106010E94BC0361E0BC
:10044000809108010E94BC0360E080910C010E9431
:10045000BC0361E080910A010C94BC036BE673E07D
:1004600082E893E00E942A0869ED72E08CE793E04D
:100470000C942A088CE793E00E94BC0782E893E082
:100480000C94BC07CF93DF9300D000D000D0CDB741
:10049000DEB78091780390917903892B09F052C0DF
:1004A0006FED72E083E993E00E94A70668EE73E0C7
:1004B00080E090E00E94300383E993E00E945404BE
:1004C0001816190634F763E973E0CE0101960E940D
:1004D000A207BE016F5F7F4F82E893E00E9476081B
:1004E000CE0101960E94BC0762E873E083E993E0C5
:1004F0000E94950669ED72E082E893E00E94C108CF
:10050000811108C061EF72E083E993E00E94A706C1
:100510000E94DA0169ED72E082E893E00E94C1086E
:10052000882309F4B6CF60E373E083E993E00E9487
:10053000A7060E94DA0068EE73E080E090E00E9477
:100540003003F7CF68E473E083E993E00E94A706E5
:1005500068EE73E080E090E00E94300326960FB6CC
:10056000F894DEBF0FBECDBFDF91CF9108951F92EB
:100570000F920FB60F9211242F933F938F939F9357
:10058000AF93BF9380918B0390918C03A0918D03C7
:10059000B0918E0330918A0323E0230F2D3720F48E
:1005A0000196A11DB11D05C026E8230F0296A11DCD
:1005B000B11D20938A0380938B0390938C03A093A7
:1005C0008D03B0938E0380918F0390919003A0913F
:1005D0009103B09192030196A11DB11D80938F03E9
:1005E00090939003A0939103B0939203BF91AF9126
:1005F0009F918F913F912F910F900FBE0F901F9061
:1006000018952FB7F89460918B0370918C038091AB
:100610008D0390918E032FBF08953FB7F89480917A
:100620008F0390919003A0919103B091920326B50E
:10063000A89B05C02F3F19F00196A11DB11D3FBF1A
:100640006627782F892F9A2F620F711D811D911DAA
:1006500042E0660F771F881F991F4A95D1F70895CA
:10066000CF92DF92EF92FF92CF93DF936B017C01E9
:100670000E940D03EB01C114D104E104F10489F0DF
:100680000E94F0080E940D036C1B7D0B683E7340B6
:1006900090F381E0C81AD108E108F108C851DC4F95
:1006A000EACFDF91CF91FF90EF90DF90CF90089548
:1006B000789484B5826084BD84B5816084BD85B53D
:1006C000826085BD85B5816085BDEEE6F0E0808104
:1006D00081608083E1E8F0E0108280818260808325
:1006E000808181608083E0E8F0E0808181608083A8
:1006F000E1EBF0E0808184608083E0EBF0E08081DA
:1007000081608083EAE7F0E080818460808380817B
:100710008260808380818160808380818068808323
:100720001092C1000895833081F028F4813099F04F
:100730008230A1F008958730A9F08830B9F0843074
:10074000D1F4809180008F7D03C0809180008F77ED
:1007500080938000089584B58F7702C084B58F7D23
:1007600084BD08958091B0008F7703C08091B00060
:100770008F7D8093B0000895CF93DF9390E0FC01CC
:10078000E458FF4F2491FC01E057FF4F84918823E8
:1007900049F190E0880F991FFC01E854FF4FA591A3
:1007A000B49182559F4FFC01C591D4919FB76111BF
:1007B00008C0F8948C91209582238C9388818223A1
:1007C0000AC0623051F4F8948C91322F3095832313
:1007D0008C938881822B888304C0F8948C91822B1F
:1007E0008C939FBFDF91CF9108950F931F93CF9369
:1007F000DF931F92CDB7DEB7282F30E0F901E8591B
:10080000FF4F8491F901E458FF4F1491F901E0572B
:10081000FF4F04910023C9F0882321F069830E94CF
:1008200093036981E02FF0E0EE0FFF1FE255FF4FC9
:10083000A591B4919FB7F8948C91611103C0109564
:10084000812301C0812B8C939FBF0F90DF91CF91AB
:100850001F910F910895CF93DF93282F30E0F90176
:10086000E859FF4F8491F901E458FF4FD491F90101
:10087000E057FF4FC491CC2391F081110E94930364
:10088000EC2FF0E0EE0FFF1FEC55FF4FA591B49158
:100890002C912D2381E090E021F480E002C080E0E3
:1008A00090E0DF91CF910895FC01818D228D90E041
:1008B000805C9F4F821B91098F7399270895FC01DB
:1008C000918D828D981731F0828DE80FF11D858D05
:1008D00090E008958FEF9FEF0895FC01918D828D38
:1008E000981761F0828DDF01A80FB11D5D968C9184
:1008F000928D9F5F9F73928F90E008958FEF9FEF8F
:10090000089581EF95E0892B49F080E090E0892BF4
:1009100029F00E94F10581110C9400000895FC015A
:10092000848DDF01A80FB11DA35ABF4F2C91848D78
:1009300090E001968F739927848FA689B7892C93AD
:10094000A089B1898C9180648C93938D848D981348
:1009500006C00288F389E02D80818F7D8083089511
:10096000CF93DF93EC01888D8823C9F0EA89FB8956
:10097000808185FD05C0A889B9898C9186FD0FC04D
:100980000FB607FCF5CF808185FFF2CFA889B98922
:100990008C9185FFEDCFCE010E948F04E7CFDF91D0
:1009A000CF910895CF92DF92FF920F931F93CF9331
:1009B000DF931F92CDB7DEB76C0181E0D601589668
:1009C0008C9358975B969C915B975C968C915C9707
:1009D000981307C05096ED91FC915197808185FD49
:1009E0002EC0F601038D10E00F5F1F4F0F7311270C
:1009F000F02EF601848DF81211C00FB607FCF9CF66
:100A0000D6015096ED91FC915197808185FFF1CFF1
:100A1000C60169830E948F046981EBCF838DE80F43
:100A2000F11DE35AFF4F6083D6015B960C935B97F1
:100A30005296ED91FC915397808180620CC0D60153
:100A40005696ED91FC91579760835096ED91FC91ED
:100A5000519780818064808381E090E00F90DF91E6
:100A6000CF911F910F91FF90DF90CF900895BF928B
:100A7000CF92DF92EF92FF92CF93DF93EC016A0166
:100A80007B01B22EE889F98982E08083411581EEED
:100A9000580761057105A1F060E079E08DE390E011
:100AA000A70196010E94F10821503109410951091D
:100AB0005695479537952795211580E1380798F089
:100AC000E889F989108260E874E88EE190E0A70176
:100AD00096010E94F10821503109410951095695AA
:100AE000479537952795EC85FD853083EE85FF8505
:100AF0002083188EEC89FD89B082EA89FB89808188
:100B000080618083EA89FB89808188608083EA89AB
:100B1000FB89808180688083EA89FB8980818F7D61
:100B20008083DF91CF91FF90EF90DF90CF90BF90C7
:100B300008951F920F920FB60F9211242F938F9347
:100B40009F93EF93FF93E091A303F091A40380811F
:100B5000E091A903F091AA0382FD12C090818091D7
:100B6000AC038F5F8F732091AD03821751F0E0913A
:100B7000AC03F0E0ED56FC4F958F8093AC0301C0C1
:100B80008081FF91EF919F918F912F910F900FBED8
:100B90000F901F9018951F920F920FB60F9211246D
:100BA0002F933F934F935F936F937F938F939F9375
:100BB000AF93BF93EF93FF9383E993E00E948F0479
:100BC000FF91EF91BF91AF919F918F917F916F9125
:100BD0005F914F913F912F910F900FBE0F901F90FB
:100BE000189583E993E00E94540421E0892B09F4CD
:100BF00020E0822F0895109296031092950388EEBC
:100C000093E0A0E0B0E08093970390939803A093C3
:100C10009903B0939A038DE593E0909394038093A6
:100C2000930385EC90E09093A00380939F0384EC62
:100C300090E09093A2038093A10380EC90E09093C6
:100C4000A4038093A30381EC90E09093A603809388
:100C5000A50382EC90E09093A8038093A70386EC11
:100C600090E09093AA038093A9031092AC03109292
:100C7000AD031092AE031092AF030895CF92DF92AE
:100C8000EF92FF920F931F93CF93DF937C016A0142
:100C9000EB0100E010E00C151D0571F06991D70122
:100CA000ED91FC910190F081E02DC7010995892B10
:100CB00019F00F5F1F4FEFCFC801DF91CF911F9148
:100CC0000F91FF90EF90DF90CF900895611571051F
:100CD00081F0DB010D900020E9F7AD014150510991
:100CE000461B570BDC01ED91FC910280F381E02D56
:100CF000099480E090E00895DC01ED91FC91DB0126
:100D000014964D915C9115976D917C910280F381C1
:100D1000E02D0994DC01ED91FC910190F081E02D32
:100D2000099469E673E00C9466060F931F93CF93C2
:100D3000DF93EC010E947C068C01CE010E9491069B
:100D4000800F911FDF91CF911F910F9108950F9305
:100D50001F93CF93DF93EC010E9466068C01CE01B6
:100D60000E949106800F911FDF91CF911F910F91EB
:100D700008958F929F92AF92BF92CF92DF92EF929F
:100D8000FF920F931F93CF93DF93CDB7DEB7A19759
:100D90000FB6F894DEBF0FBECDBF7C01C42EE52F89
:100DA000CB01D22E19A221E02D1510F02AE0D22E6F
:100DB0008E010F5D1F4F8D2C912CA12CB12C6C2D11
:100DC0007E2FA50194010E94F1088C2DD29E8019DE
:100DD0001124015011098A3014F4805D01C0895C2E
:100DE000F8018083211531054105510521F0C22EFE
:100DF000E32FCA01E4CFB801C7010E946606A1969D
:100E00000FB6F894DEBF0FBECDBFDF91CF911F911B
:100E10000F91FF90EF90DF90CF90BF90AF909F9099
:100E20008F900895CF92DF92EF92FF920F931F93CE
:100E3000CF93DF93EC016A017B012115310579F431
:100E4000E881F9810190F081E02D642FDF91CF914D
:100E50001F910F91FF90EF90DF90CF9009942A306F
:100E60003105E9F477FF1AC06DE20E948A068C0111
:100E700044275527BA014C195D096E097F092AE0FC
:100E8000CE010E94B906800F911FDF91CF911F9173
:100E90000F91FF90EF90DF90CF9008952AE0B70177
:100EA000A601CE01DF91CF911F910F91FF90EF909E
:100EB000DF90CF900C94B9060F931F93CF93DF93DD
:100EC000EC019A01AB01662757FD6095762F0E94D1
:100ED00012078C01CE010E949106800F911FDF91B5
:100EE000CF911F910F9108950F931F93CF93DF938D
:100EF000EC010E940103688779878A879B87E881D4
:100F0000F9810680F781E02DCE01099597FF15C084
:100F10000E940103088519852A853B85601B710B9A
:100F2000820B930B0C811D812E813F81601771070D
:100F30008207930720F38FEF9FEFDF91CF911F91EF
:100F40000F9108950F931F93CF93DF93EC018B01C3
:100F50006BE673E00E942A08C8010E94740797FD9F
:100F600005C0682FCE010E94AE08F6CFCE01DF91FA
:100F7000CF911F910F910895FC01808191810C9474
:100F8000B109CF93DF93EC0188819981009711F02B
:100F90000E94B109198218821D821C821B821A824A
:100FA000DF91CF9108950F931F93CF93DF93EC01BF
:100FB0008B016F5F7F4F888199810E94400A009763
:100FC00031F0998388831B830A8381E001C080E02C
:100FD000DF91CF911F910F910895CF93DF93EC0193
:100FE00088819981892B29F08A819B8186179707AF
:100FF00060F4CE010E94D307882341F08C819D814B
:10100000892B19F4E881F981108281E0DF91CF9179
:101010000895EF92FF920F931F93CF93DF93EC010C
:101020007B018A01BA010E94ED07811104C0CE0143
:101030000E94C10707C01D830C83B7018881998175
:101040000E941C0BCE01DF91CF911F910F91FF9059
:10105000EF900895FC011182108213821282158292
:1010600014826115710559F0FB0101900020E9F728
:10107000AF0141505109461B570B0C9409080895C4
:101080000F931F93CF93DF938C01EB01FC018081C1
:101090009181009799F0428153812C813D814217C3
:1010A000530750F0688179810E941C0B8C819D81CF
:1010B000F8019583848313C00E94B10988819981C6
:1010C000F801918380838A819B81938382838C81C1
:1010D0009D8195838483198218821B821A821D82C6
:1010E0001C82DF91CF911F910F910895CF93DF93D1
:1010F000EC018617970711F00E944008CE01DF919E
:10110000CF910895EF92FF920F931F93CF93DF93A8
:10111000EC017B010C811D816115710511F480E0EA
:1011200016C04115510591F0040F151FB8010E941A
:10113000ED078823A1F3288139818C819D81B70136
:10114000820F931F0E941C0B1D830C8381E0DF9193
:10115000CF911F910F91FF90EF900895CF93DF9360
:1011600000D0CDB7DEB769831A8241E050E0BE01FE
:101170006F5F7F4F0E9482080F900F90DF91CF9199
:101180000895FC0124813581232B31F421E0611580
:101190007105A1F0FB0108C0FC01808191816115FE
:1011A000710531F421E0FC018081882339F005C00C
:1011B0000E94130B21E0892B09F020E0822F089573
:1011C00008950E9458030E94E0080E940102C1E8AD
:1011D000D4E00E9442022097E1F30E948104F9CFFB
:1011E0000895A1E21A2EAA1BBB1BFD010DC0AA1F68
:1011F000BB1FEE1FFF1FA217B307E407F50720F080
:10120000A21BB30BE40BF50B661F771F881F991FFA
:101210001A9469F760957095809590959B01AC0143
:10122000BD01CF010895EE0FFF1F0590F491E02D51
:101230000994CF93DF938230910510F482E090E01F
:10124000E0913204F091330420E030E0A0E0B0E01F
:10125000309739F14081518148175907B8F0481744
:10126000590771F482819381109729F013969C930A
:101270008E9312972CC0909333048093320427C02E
:101280002115310531F04217530718F0A901DB0190
:1012900001C0EF019A01BD01DF010280F381E02D61
:1012A000D7CF21153105F9F0281B390B2430310532
:1012B00080F48A819B816115710521F0FB01938384
:1012C000828304C09093330480933204FE013296EB
:1012D00044C0FE01E20FF31F819391932250310924
:1012E000398328833AC02091300430913104232B74
:1012F00041F4209102013091030130933104209395
:10130000300420910001309101012115310541F493
:101310002DB73EB74091040150910501241B350BB8
:10132000E0913004F0913104E217F307A0F42E1B92
:101330003F0B2817390778F0AC014E5F5F4F241739
:10134000350748F04E0F5F1F50933104409330042F
:101350008193919302C0E0E0F0E0CF01DF91CF9163
:101360000895CF93DF93009709F487C0FC0132976B
:1013700013821282C0913204D0913304209781F4F9
:1013800020813181280F391F8091300490913104E0
:101390008217930779F5F0933104E09330046DC020
:1013A000DE0120E030E0AE17BF0750F412964D91F9
:1013B0005C9113979D014115510509F1DA01F3CFB5
:1013C000B383A28340815181840F951F8A179B07A5
:1013D00071F48D919C911197840F951F02969183C2
:1013E000808312968D919C9113979383828321150C
:1013F000310529F4F0933304E09332043EC0D9015F
:101400001396FC93EE9312974D915D91A40FB51F27
:10141000EA17FB0779F480819181840F951F02966A
:10142000D90111969C938E938281938113969C93FC
:101430008E931297E0E0F0E08A819B81009719F08B
:10144000FE01EC01F9CFCE01029628813981820F8D
:10145000931F20913004309131042817390769F423
:10146000309729F4109233041092320402C0138290
:101470001282D0933104C0933004DF91CF9108954C
:10148000A0E0B0E0E6E4FAE00C94270BEC01CB011D
:10149000209719F40E941909B8C0FE01E60FF71F42
:1014A0009E0122503109E217F30708F4ACC0D901BC
:1014B0000D911C91119706171707B8F0053011050B
:1014C00008F49FC0A801445051094617570708F473
:1014D00098C002501109061B170B019311936D93CD
:1014E0007C93CF010E94B1098CC05B01A01AB10AA4
:1014F0004E01800E911EA0913204B0913304612CF4
:10150000712C60E070E0109709F449C0A815B90586
:10151000C9F5ED90FC901197670142E0C40ED11C13
:10152000CA14DB0478F147018A189B08640142E081
:10153000C40ED11C1296BC9012971396AC91B5E0D4
:10154000CB16D10440F0B282A38391828082D9016C
:101550008D939C9309C00E5F1F4F0E0D1F1DF90147
:1015600011830083EB2DFA2F6115710531F0DB013A
:101570001396FC93EE93129744C0F0933304E093D8
:1015800032043FC06D917C9111976616770608F47E
:101590003B01BD0112960D90BC91A02DB4CF60917E
:1015A00030047091310468157905E9F468167906FC
:1015B000D0F440910001509101014115510541F4D1
:1015C0004DB75EB76091040170910501461B570B42
:1015D000E417F507C0F4F0933104E0933004F90107
:1015E000918380830EC00E9419097C01009759F0F5
:1015F000A801BE010E940A0BCE010E94B109C701D9
:1016000004C0CE0102C080E090E0CDB7DEB7EEE0CE
:101610000C94430BFB01DC0102C001900D92415080
:101620005040D8F70895FB01DC018D91019080199D
:101630000110D9F3990B0895FB01DC0101900D9283
:101640000020E1F708952F923F924F925F926F92A0
:101650007F928F929F92AF92BF92CF92DF92EF9242
:10166000FF920F931F93CF93DF93CDB7DEB7CA1BC3
:10167000DB0B0FB6F894DEBF0FBECDBF09942A88EE
:10168000398848885F846E847D848C849B84AA8496
:10169000B984C884DF80EE80FD800C811B81AA8123
:1016A000B981CE0FD11D0FB6F894DEBF0FBECDBFEE
:1016B000ED01089510E0C6ECD0E004C0FE010E94E8
:0E16C00015092296C83CD107C9F7F894FFCF50
:1016CE000000340480000B000C0007000200696E5D
:1016DE00697469616C2076616C7565206F66206334
:1016EE006F756E74657220696E2073747275637493
:1016FE002066756E6374696F6E20697300696E7310
:10170E0069646520746573742066756E6374696FA1
:10171E006E00656E6420696E20737472756374005A
:10172E006B657920696E736572742066756E63746D
:10173E00696F6E2069732063616C6C656420006C48
:10174E006F770020207369676E616C20726561642B
:10175E002066726F6D20454C5345207369676E612C
:10176E006C20746F20313220766F6C74206D61693D
:10177E006E20737570706C790020207369676E61CE
:10178E006C20726561642066726F6D20454C534506
:10179E00207369676E616C20746F20313220766F12
:1017AE006C74206D61696E20737570706C79202079
:1017BE004F4646464600626C7565746F6F74685F7F
:1017CE006F6E202069732063616C6C6564006869BC
:1017DE00676800626C7565746F6F74685F6F6666BC
:1017EE002069732063616C6C656400626C7565744E
:1017FE006F6F74682069732063616C6C656400742C
:10180E006573742063616C6C006869696969202076
:10181E0020636F756E7465725F696E5F626C75655D
:10182E00746F6F7468207074696E7420696E2062B4
:10183E006C7572746F6F74682069732000636F75B6
:10184E006E7465725F696E5F626C7565746F6F74CE
:10185E0068636F756E7465725F696E5F626C7565D5
:10186E00746F6F7468206973207A65726F20667268
:10187E00636566756C6C79200057454C434F4D453A
:10188E0020544F20574F524C44204F46205352491C
:10189E00414C205052494E5400564950494E006911
:1018AE006E7369646520636865636B20646174613F
:1018BE0000796F75722070617373776F726420692F
:1018CE007320696E636F727265637420706C6561EC
:1018DE00736520656E74657220636F7272656374D2
:1018EE002070617373776F65643A202E2E2E2E0052
:1018FE00696E736964652053657269616C206176E7
:10190E0061696C61626C6500696E73696465206DF6
:10191E0061696E206C6F6F700000000000D2043E93
:10192E000654046D045F04B0040D0A006E616E006F
:08193E00696E66006F76660019
:107E0000112484B714BE81FFF0D085E080938100F7
:107E100082E08093C00088E18093C10086E0809377
:107E2000C20080E18093C4008EE0C9D0259A86E02C
:107E300020E33CEF91E0309385002093840096BBD3
:107E4000B09BFECF1D9AA8958150A9F7CC24DD24C4
:107E500088248394B5E0AB2EA1E19A2EF3E0BF2EE7
:107E6000A2D0813461F49FD0082FAFD0023811F036
:107E7000013811F484E001C083E08DD089C08234E0
:107E800011F484E103C0853419F485E0A6D080C0E4
:107E9000853579F488D0E82EFF2485D0082F10E0AE
:107EA000102F00270E291F29000F111F8ED06801E7
:107EB0006FC0863521F484E090D080E0DECF843638
:107EC00009F040C070D06FD0082F6DD080E0C81688
:107ED00080E7D80618F4F601B7BEE895C0E0D1E017
:107EE00062D089930C17E1F7F0E0CF16F0E7DF06D8
:107EF00018F0F601B7BEE89568D007B600FCFDCFD4
:107F0000A601A0E0B1E02C9130E011968C91119780
:107F100090E0982F8827822B932B1296FA010C0160
:107F200087BEE89511244E5F5F4FF1E0A038BF0790
:107F300051F7F601A7BEE89507B600FCFDCF97BE46
:107F4000E89526C08437B1F42ED02DD0F82E2BD052
:107F50003CD0F601EF2C8F010F5F1F4F84911BD097
:107F6000EA94F801C1F70894C11CD11CFA94CF0C13
:107F7000D11C0EC0853739F428D08EE10CD085E9AC
:107F80000AD08FE07ACF813511F488E018D01DD067
:107F900080E101D065CF982F8091C00085FFFCCF94
:107FA0009093C60008958091C00087FFFCCF809118
:107FB000C00084FD01C0A8958091C6000895E0E648
:107FC000F0E098E1908380830895EDDF803219F02E
:107FD00088E0F5DFFFCF84E1DECF1F93182FE3DFCA
:107FE0001150E9F7F2DF1F91089580E0E8DFEE27F6
:047FF000FF270994CA
:027FFE00040479
:0400000300007E007B
:00000001FF
