:100000000C9464000C948C000C948C000C948C0068
:100010000C948C000C948C000C948C000C948C0030
:100020000C948C000C948C000C948C000C948C0020
:100030000C948C000C948C000C948C000C948C0010
:100040000C94C8020C948C000C94AA050C94DC054A
:100050000C948C000C948C000C948C000C948C00F0
:100060000C948C000C948C0000000008000201002D
:100070000003040700000000000000000102040863
:100080001020408001020408102001020408102002
:10009000040404040404040402020202020203032E
:1000A00003030303000000002300260029000000D2
:1000B0000000250028002B0000000000240027007D
:1000C0002A002B020C06370211241FBECFEFD8E006
:1000D000DEBFCDBF14E0A0E0B1E0E4E3F7E102C091
:1000E00005900D92AA37B107D9F725E0AAE7B4E049
:1000F00001C01D92A433B207E1F710E0C6ECD0E0D6
:1001000004C02297FE010E944809C23CD107C9F7EA
:100110000E9414090C948D0B0C9400006CE971E0A2
:1001200083E994E00E94BA0660E0809106010E9493
:10013000060460E0809108010E94060480910C0191
:100140000E943C0490938904809388046BEB71E0D7
:1001500083E994E00E949B06609188047091890471
:100160004AE050E083E994E00E946F0768EE73E094
:1001700080E090E00E94410380918804909189047E
:10018000019789F461E080910A010E9406046BEEF8
:1001900071E083E994E00E94BA0668EE73E080E0C3
:1001A00090E00E9441038091880490918904892BFA
:1001B00089F460E080910A010E94060460E272E026
:1001C00083E994E00E94BA0668EE73E080E090E074
:1001D0000C944103089560E080910A010E94060496
:1001E00069E572E083E994E00E94BA0662E772E092
:1001F00083E994E00E94BA0680910C010E943C04BD
:10020000019749F760E872E083E994E00E94BA063A
:1002100060917A0470917B046F5F7F4F70937B04D1
:1002200060937A044AE050E083E994E00E946F070B
:1002300080917A0490917B04089560E080910A0196
:100240000E9406046BEB72E083E994E00E94BA0618
:1002500064ED72E083E994E00E94BA0680910C019B
:100260000E943C04019749F76DED72E083E994E048
:100270000E94BA0610927B0410927A0468EE73E032
:1002800080E090E00E94410380917A0490917B0489
:10029000089566E173E083E994E00E94BA0661E0A4
:1002A000809106010E94060461E0809108010E948D
:1002B000060480910C010E943C0490938904809371
:1002C000880468E373E083E994E00E949B066091F0
:1002D0008804709189044AE050E083E994E00E9428
:1002E0006F0768EE73E080E090E00E94410368E6EB
:1002F00073E083E994E00E94BA0668EE73E080E060
:1003000090E00E94410380918804909189040197B4
:10031000A9F480917A0490917B04019690937B04D8
:1003200080937A04019711F40E94EB0080917A0483
:1003300090917B04029711F40C941D010895CF93C2
:10034000DF9300D000D000D0CDB7DEB76FE773E009
:1003500083E994E00E94BA0663E974E0CE01019655
:100360000E94B507BE016F5F7F4F82E894E00E9454
:10037000A908CE0101960E94CF0762E874E083E9E4
:1003800094E00E94A80626960FB6F894DEBF0FBE32
:10039000CDBFDF91CF9108950F931F93CF93DF933C
:1003A00000D000D000D0CDB7DEB78C0163E974E097
:1003B000CE0101960E94B507BE016F5F7F4F82E8B4
:1003C00094E00E94A908CE0101960E94CF0762E83E
:1003D00074E083E994E00E94A80662E874E0C80132
:1003E0000E94A008C80126960FB6F894DEBF0FBE83
:1003F000CDBFDF91CF911F910F91089526E040E886
:1004000055E260E070E083E994E00E9448056EEBFD
:1004100073E083E994E00E94BA06609188047091C9
:1004200089044AE050E083E994E00E946F0761E0AC
:10043000809106010E94CD0361E0809108010E9435
:10044000CD0360E080910C010E94CD0361E08091BA
:100450000A010C94CD036DE674E082E894E00E94FA
:100460003D0866EE73E08CE794E00C943D088CE761
:1004700094E00E94CF0782E894E00C94CF07CF93DA
:10048000DF9300D000D000D0CDB7DEB783E994E091
:100490000E946504892B11F40E948E006CEE73E0BB
:1004A00083E994E00E94BA0683E994E00E9465041F
:1004B000892B61F1CE0101960E94CC0166EE73E0BA
:1004C000CE0101960E94F408811108C06AE074E030
:1004D000CE0101960E94F4088823A9F066EE73E02D
:1004E000CE0101960E94F408882341F06FE074E089
:1004F00083E994E00E94BA060E949702CE01019619
:100500000E94CF0703C00E949F01E8CF26960FB636
:10051000F894DEBF0FBECDBFDF91CF9108956CE39D
:1005200074E083E994E00E94BA060C943F02CF93F2
:10053000DF9300D000D000D0CDB7DEB70E944901D4
:10054000CE0101960E94CC016AE074E0CE010196D2
:100550000E94F40881110BC068EE73E080E090E027
:100560000E944103CE0101960E94CF07E7CF0E946F
:100570008F02CE0101960E94CF0781E090E026967F
:100580000FB6F894DEBF0FBECDBFDF91CF910895B7
:100590001F920F920FB60F9211242F933F938F93B8
:1005A0009F93AF93BF9380918B0490918C04A09103
:1005B0008D04B0918E0430918A0423E0230F2D37EF
:1005C00020F40196A11DB11D05C026E8230F029657
:1005D000A11DB11D20938A0480938B0490938C04F9
:1005E000A0938D04B0938E0480918F049091900419
:1005F000A0919104B09192040196A11DB11D809328
:100600008F0490939004A0939104B0939204BF91AF
:10061000AF919F918F913F912F910F900FBE0F90AF
:100620001F9018952FB7F89460918B0470918C04EB
:1006300080918D0490918E042FBF08953FB7F89458
:1006400080918F0490919004A0919104B0919204B4
:1006500026B5A89B05C02F3F19F00196A11DB11D1D
:100660003FBF6627782F892F9A2F620F711D811D3A
:10067000911D42E0660F771F881F991F4A95D1F799
:100680000895CF92DF92EF92FF92CF93DF936B01A9
:100690007C010E941E03EB01C114D104E104F104AA
:1006A00089F00E9423090E941E036C1B7D0B683E8B
:1006B000734090F381E0C81AD108E108F108C851ED
:1006C000DC4FEACFDF91CF91FF90EF90DF90CF909A
:1006D0000895789484B5826084BD84B5816084BDBA
:1006E00085B5826085BD85B5816085BDEEE6F0E0AB
:1006F000808181608083E1E8F0E010828081826007
:100700008083808181608083E0E8F0E08081816087
:100710008083E1EBF0E0808184608083E0EBF0E0B7
:10072000808181608083EAE7F0E08081846080835B
:100730008081826080838081816080838081806805
:1007400080831092C1000895833081F028F48130B5
:1007500099F08230A1F008958730A9F08830B9F07F
:100760008430D1F4809180008F7D03C0809180001F
:100770008F7780938000089584B58F7702C084B509
:100780008F7D84BD08958091B0008F7703C08091E4
:10079000B0008F7D8093B0000895CF93DF9390E0F9
:1007A000FC01E458FF4F2491FC01E057FF4F849176
:1007B000882349F190E0880F991FFC01E854FF4F0E
:1007C000A591B49182559F4FFC01C591D4919FB7DB
:1007D000611108C0F8948C91209582238C938881B4
:1007E00082230AC0623051F4F8948C91322F3095F4
:1007F00083238C938881822B888304C0F8948C9106
:10080000822B8C939FBFDF91CF9108950F931F93FD
:10081000CF93DF931F92CDB7DEB7282F30E0F901D9
:10082000E859FF4F8491F901E458FF4F1491F90101
:10083000E057FF4F04910023C9F0882321F069831A
:100840000E94A4036981E02FF0E0EE0FFF1FE25544
:10085000FF4FA591B4919FB7F8948C91611103C09B
:100860001095812301C0812B8C939FBF0F90DF9146
:10087000CF911F910F910895CF93DF93282F30E0F0
:10088000F901E859FF4F8491F901E458FF4FD491E1
:10089000F901E057FF4FC491CC2391F081110E94E0
:1008A000A403EC2FF0E0EE0FFF1FEC55FF4FA591D6
:1008B000B4912C912D2381E090E021F480E002C0DE
:1008C00080E090E0DF91CF910895FC01818D228D31
:1008D00090E0805C9F4F821B91098F739927089548
:1008E000FC01918D828D981731F0828DE80FF11DFA
:1008F000858D90E008958FEF9FEF0895FC01918D15
:10090000828D981761F0828DDF01A80FB11D5D9671
:100910008C91928D9F5F9F73928F90E008958FEFDF
:100920009FEF089582E096E0892B49F080E090E007
:10093000892B29F00E94020681110C940000089571
:10094000FC01848DDF01A80FB11DA35ABF4F2C916C
:10095000848D90E001968F739927848FA689B7893B
:100960002C93A089B1898C9180648C93938D848D14
:10097000981306C00288F389E02D80818F7D8083E3
:100980000895CF93DF93EC01888D8823C9F0EA891D
:10099000FB89808185FD05C0A889B9898C9186FD78
:1009A0000FC00FB607FCF5CF808185FFF2CFA88975
:1009B000B9898C9185FFEDCFCE010E94A004E7CFCD
:1009C000DF91CF910895CF92DF92FF920F931F9303
:1009D000CF93DF931F92CDB7DEB76C0181E0D601D4
:1009E00058968C9358975B969C915B975C968C91EC
:1009F0005C97981307C05096ED91FC9151978081B8
:100A000085FD2EC0F601038D10E00F5F1F4F0F73A1
:100A10001127F02EF601848DF81211C00FB607FCD5
:100A2000F9CFD6015096ED91FC915197808185FFC9
:100A3000F1CFC60169830E94A0046981EBCF838D49
:100A4000E80FF11DE35AFF4F6083D6015B960C93CC
:100A50005B975296ED91FC915397808180620CC018
:100A6000D6015696ED91FC91579760835096ED9183
:100A7000FC91519780818064808381E090E00F90A9
:100A8000DF91CF911F910F91FF90DF90CF9008954C
:100A9000BF92CF92DF92EF92FF92CF93DF93EC0160
:100AA0006A017B01B22EE889F98982E080834115D1
:100AB00081EE580761057105A1F060E079E08DE3F2
:100AC00090E0A70196010E942409215031094109B3
:100AD00051095695479537952795211580E1380797
:100AE00098F0E889F989108260E874E88EE190E076
:100AF000A70196010E942409215031094109510999
:100B00005695479537952795EC85FD853083EE857D
:100B1000FF852083188EEC89FD89B082EA89FB89E4
:100B2000808180618083EA89FB89808188608083FD
:100B3000EA89FB89808180688083EA89FB898081DA
:100B40008F7D8083DF91CF91FF90EF90DF90CF90EA
:100B5000BF9008951F920F920FB60F9211242F93FA
:100B60008F939F93EF93FF93E091A304F091A404DC
:100B70008081E091A904F091AA0482FD12C09081C5
:100B80008091AC048F5F8F732091AD04821751F078
:100B9000E091AC04F0E0ED56FB4F958F8093AC04F0
:100BA00001C08081FF91EF919F918F912F910F90C4
:100BB0000FBE0F901F9018951F920F920FB60F92B5
:100BC00011242F933F934F935F936F937F938F9352
:100BD0009F93AF93BF93EF93FF9383E994E00E94B9
:100BE000A004FF91EF91BF91AF919F918F917F9161
:100BF0006F915F914F913F912F910F900FBE0F908A
:100C00001F90189583E994E00E94650421E0892BE8
:100C100009F420E0822F0895109296041092950412
:100C200088EE93E0A0E0B0E080939704909398045E
:100C3000A0939904B0939A048FE594E09093940460
:100C40008093930485EC90E09093A00480939F049C
:100C500084EC90E09093A2048093A10480EC90E057
:100C60009093A4048093A30481EC90E09093A60455
:100C70008093A50482EC90E09093A8048093A7044D
:100C800086EC90E09093AA048093A9041092AC049F
:100C90001092AD041092AE041092AF040895CF925A
:100CA000DF92EF92FF920F931F93CF93DF937C011C
:100CB0006A01EB0100E010E00C151D0571F069916F
:100CC000D701ED91FC910190F081E02DC7010995CC
:100CD000892B19F00F5F1F4FEFCFC801DF91CF9124
:100CE0001F910F91FF90EF90DF90CF9008956115C5
:100CF000710581F0DB010D900020E9F7AD01415055
:100D00005109461B570BDC01ED91FC910280F381E8
:100D1000E02D099480E090E00895DC01ED91FC91D4
:100D2000DB0114964D915C9115976D917C91028039
:100D3000F381E02D09940C947706DC01ED91FC9190
:100D40000190F081E02D09946BE674E00C94770635
:100D50000F931F93CF93DF93EC010E948D068C01BC
:100D6000CE010E94A406800F911FDF91CF911F91A9
:100D70000F9108950F931F93CF93DF93EC010E947F
:100D800077068C01CE010E94A406800F911FDF918F
:100D9000CF911F910F9108958F929F92AF92BF9222
:100DA000CF92DF92EF92FF920F931F93CF93DF9337
:100DB000CDB7DEB7A1970FB6F894DEBF0FBECDBF9B
:100DC0007C01C42EE52FCB01D22E19A221E02D15D6
:100DD00010F02AE0D22E8E010F5D1F4F8D2C912C2A
:100DE000A12CB12C6C2D7E2FA50194010E94240909
:100DF0008C2DD29E80191124015011098A3014F4CF
:100E0000805D01C0895CF8018083211531054105B1
:100E1000510521F0C22EE32FCA01E4CFB801C7016A
:100E20000E947706A1960FB6F894DEBF0FBECDBF25
:100E3000DF91CF911F910F91FF90EF90DF90CF90B6
:100E4000BF90AF909F908F900895CF92DF92EF92D6
:100E5000FF920F931F93CF93DF93EC016A017B0105
:100E60002115310579F4E881F9810190F081E02DB7
:100E7000642FDF91CF911F910F91FF90EF90DF9042
:100E8000CF9009942A303105E9F477FF1AC06DE25A
:100E90000E949D068C0144275527BA014C195D0913
:100EA0006E097F092AE0CE010E94CC06800F911FB7
:100EB000DF91CF911F910F91FF90EF90DF90CF9036
:100EC00008952AE0B701A601CE01DF91CF911F91CD
:100ED0000F91FF90EF90DF90CF900C94CC060F9382
:100EE0001F93CF93DF93EC019A01AB01662757FD67
:100EF0006095762F0E9425078C01CE010E94A406E2
:100F0000800F911FDF91CF911F910F9108950F9343
:100F10001F93CF93DF93EC010E94120368877987B8
:100F20008A879B87E881F9810680F781E02DCE01D1
:100F3000099597FF15C00E941203088519852A8517
:100F40003B85601B710B820B930B0C811D812E81E5
:100F50003F81601771078207930720F38FEF9FEFA0
:100F6000DF91CF911F910F9108950F931F93CF930E
:100F7000DF93EC018B016DE674E00E943D08C8012F
:100F80000E94870797FD05C0682FCE010E94E108E7
:100F9000F6CFCE01DF91CF911F910F910895FC0103
:100FA000808191810C94E409CF93DF93EC018881D7
:100FB0009981009711F00E94E409198218821D821C
:100FC0001C821B821A82DF91CF9108950F931F9389
:100FD000CF93DF93EC018B016F5F7F4F8881998105
:100FE0000E94730A009731F0998388831B830A83D8
:100FF00081E001C080E0DF91CF911F910F910895B2
:10100000CF93DF93EC0188819981892B29F08A8124
:101010009B818617970760F4CE010E94E60788231C
:1010200041F08C819D81892B19F4E881F98110822E
:1010300081E0DF91CF910895EF92FF920F931F937C
:10104000CF93DF93EC017B018A01BA010E94000873
:10105000811104C0CE010E94D40707C01D830C83F8
:10106000B701888199810E944F0BCE01DF91CF910A
:101070001F910F91FF90EF900895FC011182108253
:1010800013821282158214826115710559F0FB01D9
:1010900001900020E9F7AF0141505109461B570B61
:1010A0000C941C0808950F931F93CF93DF938C012A
:1010B000EB01FC0180819181009799F0428153817D
:1010C0002C813D814217530750F0688179810E943D
:1010D0004F0B8C819D81F8019583848313C00E94FE
:1010E000E40988819981F801918380838A819B81B9
:1010F000938382838C819D81958384831982188256
:101100001B821A821D821C82DF91CF911F910F9149
:101110000895CF93DF93EC01FB018617970761F0E9
:10112000608171816115710529F0448155810E94AA
:101130001C0802C00E94D407CE01DF91CF91089510
:10114000FC011182108213821282158214820C9487
:101150008908CF93DF93EC018617970711F00E945F
:101160005308CE01DF91CF910895EF92FF920F9334
:101170001F93CF93DF93EC017B010C811D816115DF
:10118000710511F480E016C04115510591F0040F6E
:10119000151FB8010E9400088823A1F32881398116
:1011A0008C819D81B701820F931F0E944F0B1D837D
:1011B0000C8381E0DF91CF911F910F91FF90EF9011
:1011C0000895CF93DF9300D0CDB7DEB769831A823D
:1011D00041E050E0BE016F5F7F4F0E94B5080F9065
:1011E0000F90DF91CF910895FC0124813581232B4D
:1011F00031F421E061157105A1F0FB0108C0FC018B
:10120000808191816115710531F421E0FC018081BB
:10121000882339F005C00E94460B21E0892B09F094
:1012200020E0822F089508950E9469030E94130907
:101230000E94FE01C2E9D4E00E943F022097E1F340
:101240000E949204F9CF0895A1E21A2EAA1BBB1B9B
:10125000FD010DC0AA1FBB1FEE1FFF1FA217B30782
:10126000E407F50720F0A21BB30BE40BF50B661F98
:10127000771F881F991F1A9469F76095709580955C
:1012800090959B01AC01BD01CF010895EE0FFF1FAA
:101290000590F491E02D0994CF93DF93823091056E
:1012A00010F482E090E0E0913205F091330520E007
:1012B00030E0A0E0B0E0309739F14081518148172B
:1012C0005907B8F04817590771F482819381109734
:1012D00029F013969C938E9312972CC0909333050C
:1012E0008093320527C02115310531F0421753078D
:1012F00018F0A901DB0101C0EF019A01BD01DF0176
:101300000280F381E02DD7CF21153105F9F0281B9C
:10131000390B2430310580F48A819B816115710578
:1013200021F0FB019383828304C090933305809363
:101330003205FE01329644C0FE01E20FF31F819395
:10134000919322503109398328833AC02091300586
:1013500030913105232B41F420910201309103019A
:101360003093310520933005209100013091010127
:101370002115310541F42DB73EB74091040150913C
:101380000501241B350BE0913005F0913105E21782
:10139000F307A0F42E1B3F0B2817390778F0AC0198
:1013A0004E5F5F4F2417350748F04E0F5F1F509375
:1013B0003105409330058193919302C0E0E0F0E065
:1013C000CF01DF91CF910895CF93DF93009709F478
:1013D00087C0FC01329713821282C0913205D091EE
:1013E0003305209781F420813181280F391F8091A6
:1013F0003005909131058217930779F5F093310507
:10140000E09330056DC0DE0120E030E0AE17BF078D
:1014100050F412964D915C9113979D014115510521
:1014200009F1DA01F3CFB383A28340815181840FA4
:10143000951F8A179B0771F48D919C911197840FCA
:10144000951F02969183808312968D919C9113979C
:10145000938382832115310529F4F0933305E093BA
:1014600032053EC0D9011396FC93EE9312974D912D
:101470005D91A40FB51FEA17FB0779F48081918174
:10148000840F951F0296D90111969C938E938281A9
:10149000938113969C938E931297E0E0F0E08A81FB
:1014A0009B81009719F0FE01EC01F9CFCE01029665
:1014B00028813981820F931F2091300530913105A9
:1014C0002817390769F4309729F4109233051092E0
:1014D000320502C013821282D0933105C0933005C9
:1014E000DF91CF910895A0E0B0E0E9E7FAE00C9435
:1014F0005A0BEC01CB01209719F40E944C09B8C09B
:10150000FE01E60FF71F9E0122503109E217F30793
:1015100008F4ACC0D9010D911C911197061717075B
:10152000B8F00530110508F49FC0A80144505109D6
:101530004617570708F498C002501109061B170BED
:10154000019311936D937C93CF010E94E4098CC0A9
:101550005B01A01AB10A4E01800E911EA0913205C6
:10156000B0913305612C712C60E070E0109709F4A4
:1015700049C0A815B905C9F5ED90FC901197670110
:1015800042E0C40ED11CCA14DB0478F147018A186A
:101590009B08640142E0C40ED11C1296BC901297C5
:1015A0001396AC91B5E0CB16D10440F0B282A38380
:1015B00091828082D9018D939C9309C00E5F1F4F49
:1015C0000E0D1F1DF90111830083EB2DFA2F6115FC
:1015D000710531F0DB011396FC93EE93129744C032
:1015E000F0933305E09332053FC06D917C911197E4
:1015F0006616770608F43B01BD0112960D90BC916A
:10160000A02DB4CF60913005709131056815790532
:10161000E9F468167906D0F4409100015091010177
:101620004115510541F44DB75EB7609104017091C9
:101630000501461B570BE417F507C0F4F09331057D
:10164000E0933005F901918380830EC00E944C091C
:101650007C01009759F0A801BE010E943D0BCE010C
:101660000E94E409C70104C0CE0102C080E090E0FE
:10167000CDB7DEB7EEE00C94760BFB01DC0102C0C7
:1016800001900D9241505040D8F70895FB01DC01C4
:101690008D91019080190110D9F3990B0895FB01E8
:1016A000DC0101900D920020E1F708952F923F9206
:1016B0004F925F926F927F928F929F92AF92BF9262
:1016C000CF92DF92EF92FF920F931F93CF93DF930E
:1016D000CDB7DEB7CA1BDB0B0FB6F894DEBF0FBE6B
:1016E000CDBF09942A88398848885F846E847D84B8
:1016F0008C849B84AA84B984C884DF80EE80FD80BA
:101700000C811B81AA81B981CE0FD11D0FB6F8942F
:10171000DEBF0FBECDBFED01089510E0C6ECD0E0F6
:1017200004C0FE010E9448092296C83CD107C9F7AF
:04173000F894FFCF5B
:101734000000340580000B000C00070002007765F0
:101744006C636F6D6520696E2073747275637420A9
:1017540066756E6374696F6E20007072696E7420B2
:101764007468652076616C7565206F6620742E64DC
:101774005F696E70757420696E207374727563741A
:10178400202066756E6374696F6E0076616C756592
:10179400206F6620636F756E7420696E2073747297
:1017A4007563742066756E6374696F6E2069732047
:1017B4003A202000656E64206F662073747275632E
:1017C400742066756E6374696F6E20006B65795F53
:1017D400696E736572742066756E6374696F6E20CA
:1017E40069732063616C6C656420007072696E7447
:1017F400206469676974616C207265616420696E34
:1018040073696465206B65795F696E7365727420B2
:1018140064617461206973203A20006B65792069E2
:1018240073206F6E20616E6420706F776572207311
:101834007570706C79206973204F4E20666F72202A
:101844006F746865722066756E6374696F6E2000CC
:1018540020206B6579206973206F666620616E6451
:1018640020706F77657220737570706C792069735E
:10187400204F46462020666F72206F746865722080
:1018840066756E6374696F6E00636F756E7420693C
:1018940073203220616E6420646174612069732056
:1018A4003100202062696B65204F4E4E2E2E2E0093
:1018B400696E736964652062696B6520204F4E20F0
:1018C400207768696C65206C6F6F702066756E6335
:1018D40074696F6E2020696E206966207374617468
:1018E4006D656E74203A202E2E2000636F756E7421
:1018F400206973203220616E642064617461206900
:101904007320300062696B65206F666600696E73D0
:101914006964652062696B65204F464620206675C0
:101924006E6374696F6E20494E207768696C652018
:1019340020696E20696620737461746D656E74200D
:101944003A202E2E2000626C7565746F6F746820C7
:101954002066756E6374696F6E2069732063616CB1
:101964006C6564203A2020007072696E742064698A
:10197400676974616C207265616420696E7369645F
:101984006520626C7565746F6F746820206461747F
:1019940061206973203A2000707265737320746843
:1019A40065207075736820627574746F6E20007999
:1019B4006F75722070617373776F7264206973201E
:1019C400696E636F727265637420706C65617365B0
:1019D40020656E74657220636F7272656374207023
:1019E400617373776F65643A202E2E2E2E0077452F
:1019F4004C434F4D4520494E20534543435552498E
:101A040054592053595354454D20534F4C55544920
:101A14004F4E53203A00564950494E00696E73693F
:101A2400646520636865636B206461746120776812
:101A3400696C65206C6F6F70200053544F500079AF
:101A44006F75722070617373776F7264206973208D
:101A5400636F727265637420594F5520484156452F
:101A6400204C4F47494E203A2E2E2E0073746F702F
:101A7400207768696C6520626C7565746F6F746833
:101A84002069732063616C6C65640000000000E3EE
:101A9400044F0665047E047004C1040D0A006E61DF
:0A1AA4006E00696E66006F76660042
:00000001FF
