:100000000C9464000C948C000C948C000C948C0068
:100010000C948C000C948C000C948C000C948C0030
:100020000C948C000C948C000C948C000C948C0020
:100030000C948C000C948C000C948C000C948C0010
:100040000C94B0020C948C000C9492050C94C40592
:100050000C948C000C948C000C948C000C948C00F0
:100060000C948C000C948C0000000008000201002D
:100070000003040700000000000000000102040863
:100080001020408001020408102001020408102002
:10009000040404040404040402020202020203032E
:1000A00003030303000000002300260029000000D2
:1000B0000000250028002B0000000000240027007D
:1000C0002A001C02F405220211241FBECFEFD8E043
:1000D000DEBFCDBF12E0A0E0B1E0E0E8F5E102C094
:1000E00005900D92AE37B107D9F723E0AEE7B2E045
:1000F00001C01D92A233B207E1F710E0C6ECD0E0D8
:1001000004C02297FE010E946E08C23CD107C9F7C5
:100110000E943A080C94B30A0C94000060E08091AD
:1001200006010E94EE0360E0809108010E94EE0348
:1001300080910E010E94240490938702809386028E
:1001400066E970E080E090E00E94290380918602D9
:1001500090918702019789F461E080910A010E94E1
:10016000EE0360E171E081E992E00E949B0666E99E
:1001700070E080E090E00E942903809186029091D7
:100180008702892B89F460E080910A010E94EE03C6
:1001900061E371E081E992E00E949B0666E970E00C
:1001A00080E090E00C942903089568E571E081E90E
:1001B00092E00E949B0661E080910A010E94EE039A
:1001C00060ED77E080E090E00E94290380910E01CD
:1001D0000E942404019749F780917E0290917F024A
:1001E000019690937F0280937E02089560E0809153
:1001F0000A010E94EE0366E671E081E992E00E9446
:100200009B0680910E010E942404019779F71092B9
:100210007F0210927E0266E970E080E090E00E942A
:10022000290380917E0290917F0208956FE671E02C
:1002300081E992E00E949B0661E0809106010E94A4
:10024000EE0361E0809108010E94EE0380910E01AF
:100250000E942404909387028093860266E970E0EE
:1002600080E090E00E9429038091860290918702AD
:100270000197A9F480917E0290917F02019690935C
:100280007F0280937E02019711F40E94D500809135
:100290007E0290917F02029711F40C94F60008956B
:1002A000CF93DF9300D000D000D0CDB7DEB761E9A7
:1002B00071E081E992E00E949B0661E972E0CE0163
:1002C00001960E94DB06BE016F5F7F4F80E892E0DF
:1002D0000E94CF07CE0101960E94F50660E872E009
:1002E00081E992E00E94890626960FB6F894DEBF57
:1002F0000FBECDBFDF91CF9108950F931F93CF9382
:10030000DF9300D000D000D0CDB7DEB78C0161E91B
:1003100072E0CE0101960E94DB06BE016F5F7F4F47
:1003200080E892E00E94CF07CE0101960E94F50678
:1003300060E872E081E992E00E94890660E872E07C
:10034000C8010E94C607C80126960FB6F894DEBF02
:100350000FBECDBFDF91CF911F910F91089560ED3A
:1003600071E081E992E00E94830661E080910C01D6
:100370000E94EE0361E0809108010E94EE0361E0BB
:10038000809106010E94EE0380910E010E942404D8
:10039000909387028093860266E970E080E090E0A7
:1003A0000E9429038091860290918702019789F427
:1003B00061E080910A010E94EE0360E171E081E951
:1003C00092E00E949B0666E970E080E090E00E9467
:1003D000290368E873E180E090E00E94290360E06F
:1003E00080910C010C94EE0326E040E855E260E0B9
:1003F00070E081E992E00E94300565EE71E081E9EC
:1004000092E00E949B0661E0809106010E94B50384
:1004100061E080910C010E94B50361E080910801C8
:100420000E94B50360E080910E010E94B50361E077
:1004300080910A010C94B50361E772E080E892E0D4
:100440000C94630780E892E00C94F506CF93DF9359
:1004500000D000D000D0CDB7DEB781E992E00E9495
:100460004D04892B41F460E172E081E992E00E9441
:100470009B060E948E0081E992E00E944D04892B28
:10048000A9F1CE0101960E947D0162E272E0CE01E7
:1004900001960E941A08811108C068E272E0CE013C
:1004A00001960E941A088823F1F06DE272E0CE01F5
:1004B00001960E941A0881110E94AF0162E272E067
:1004C000CE0101960E941A08882341F062E372E08F
:1004D00081E992E00E949B060E947F02CE01019674
:1004E0000E94F50603C00E945001DFCF26960FB68A
:1004F000F894DEBF0FBECDBFDF91CF910895CF93AB
:10050000DF9300D000D000D0CDB7DEB70E94160137
:10051000CE0101960E947D0168E272E0CE01019653
:100520000E941A0881110BC068EE73E080E090E031
:100530000E942903CE0101960E94F506E7CF0E9492
:100540002602CE0101960E94F50681E090E02696F3
:100550000FB6F894DEBF0FBECDBFDF91CF910895E7
:100560001F920F920FB60F9211242F933F938F93E8
:100570009F93AF93BF938091890290918A02A0913B
:100580008B02B0918C023091880223E0230F2D372B
:1005900020F40196A11DB11D05C026E8230F029687
:1005A000A11DB11D209388028093890290938A0235
:1005B000A0938B02B0938C0280918D0290918E0259
:1005C000A0918F02B09190020196A11DB11D809360
:1005D0008D0290938E02A0938F02B0939002BF91F0
:1005E000AF919F918F913F912F910F900FBE0F90E0
:1005F0001F9018952FB7F8946091890270918A0224
:1006000080918B0290918C022FBF08953FB7F89490
:1006100080918D0290918E02A0918F02B0919002F4
:1006200026B5A89B05C02F3F19F00196A11DB11D4D
:100630003FBF6627782F892F9A2F620F711D811D6A
:10064000911D42E0660F771F881F991F4A95D1F7C9
:100650000895CF92DF92EF92FF92CF93DF936B01D9
:100660007C010E940603EB01C114D104E104F104F2
:1006700089F00E9449080E9406036C1B7D0B683EAE
:10068000734090F381E0C81AD108E108F108C8511D
:10069000DC4FEACFDF91CF91FF90EF90DF90CF90CA
:1006A0000895789484B5826084BD84B5816084BDEA
:1006B00085B5826085BD85B5816085BDEEE6F0E0DB
:1006C000808181608083E1E8F0E010828081826037
:1006D0008083808181608083E0E8F0E080818160B8
:1006E0008083E1EBF0E0808184608083E0EBF0E0E8
:1006F000808181608083EAE7F0E08081846080838C
:100700008081826080838081816080838081806835
:1007100080831092C1000895833081F028F48130E5
:1007200099F08230A1F008958730A9F08830B9F0AF
:100730008430D1F4809180008F7D03C0809180004F
:100740008F7780938000089584B58F7702C084B539
:100750008F7D84BD08958091B0008F7703C0809114
:10076000B0008F7D8093B0000895CF93DF9390E029
:10077000FC01E458FF4F2491FC01E057FF4F8491A6
:10078000882349F190E0880F991FFC01E854FF4F3E
:10079000A591B49182559F4FFC01C591D4919FB70B
:1007A000611108C0F8948C91209582238C938881E4
:1007B00082230AC0623051F4F8948C91322F309524
:1007C00083238C938881822B888304C0F8948C9136
:1007D000822B8C939FBFDF91CF9108950F931F932E
:1007E000CF93DF931F92CDB7DEB7282F30E0F9010A
:1007F000E859FF4F8491F901E458FF4F1491F90132
:10080000E057FF4F04910023C9F0882321F069834A
:100810000E948C036981E02FF0E0EE0FFF1FE2558C
:10082000FF4FA591B4919FB7F8948C91611103C0CB
:100830001095812301C0812B8C939FBF0F90DF9176
:10084000CF911F910F910895CF93DF93282F30E020
:10085000F901E859FF4F8491F901E458FF4FD49111
:10086000F901E057FF4FC491CC2391F081110E9410
:100870008C03EC2FF0E0EE0FFF1FEC55FF4FA5911E
:10088000B4912C912D2381E090E021F480E002C00E
:1008900080E090E0DF91CF910895FC01818D228D61
:1008A00090E0805C9F4F821B91098F739927089578
:1008B000FC01918D828D981731F0828DE80FF11D2A
:1008C000858D90E008958FEF9FEF0895FC01918D45
:1008D000828D981761F0828DDF01A80FB11D5D96A2
:1008E0008C91928D9F5F9F73928F90E008958FEF10
:1008F0009FEF08958AEE95E0892B49F080E090E023
:10090000892B29F00E94EA0581110C9400000895BA
:10091000FC01848DDF01A80FB11DA35ABF4F2C919C
:10092000848D90E001968F739927848FA689B7896B
:100930002C93A089B1898C9180648C93938D848D44
:10094000981306C00288F389E02D80818F7D808313
:100950000895CF93DF93EC01888D8823C9F0EA894D
:10096000FB89808185FD05C0A889B9898C9186FDA8
:100970000FC00FB607FCF5CF808185FFF2CFA889A5
:10098000B9898C9185FFEDCFCE010E948804E7CF15
:10099000DF91CF910895CF92DF92FF920F931F9333
:1009A000CF93DF931F92CDB7DEB76C0181E0D60104
:1009B00058968C9358975B969C915B975C968C911C
:1009C0005C97981307C05096ED91FC9151978081E8
:1009D00085FD2EC0F601038D10E00F5F1F4F0F73D2
:1009E0001127F02EF601848DF81211C00FB607FC06
:1009F000F9CFD6015096ED91FC915197808185FFFA
:100A0000F1CFC60169830E9488046981EBCF838D91
:100A1000E80FF11DE35AFF4F6083D6015B960C93FC
:100A20005B975296ED91FC915397808180620CC048
:100A3000D6015696ED91FC91579760835096ED91B3
:100A4000FC91519780818064808381E090E00F90D9
:100A5000DF91CF911F910F91FF90DF90CF9008957C
:100A6000BF92CF92DF92EF92FF92CF93DF93EC0190
:100A70006A017B01B22EE889F98982E08083411501
:100A800081EE580761057105A1F060E079E08DE322
:100A900090E0A70196010E944A08215031094109BE
:100AA00051095695479537952795211580E13807C7
:100AB00098F0E889F989108260E874E88EE190E0A6
:100AC000A70196010E944A082150310941095109A4
:100AD0005695479537952795EC85FD853083EE85AE
:100AE000FF852083188EEC89FD89B082EA89FB8915
:100AF000808180618083EA89FB898081886080832E
:100B0000EA89FB89808180688083EA89FB8980810A
:100B10008F7D8083DF91CF91FF90EF90DF90CF901A
:100B2000BF9008951F920F920FB60F9211242F932A
:100B30008F939F93EF93FF93E091A102F091A20214
:100B40008081E091A702F091A80282FD12C09081FD
:100B50008091AA028F5F8F732091AB02821751F0B0
:100B6000E091AA02F0E0EF56FD4F958F8093AA0224
:100B700001C08081FF91EF919F918F912F910F90F4
:100B80000FBE0F901F9018951F920F920FB60F92E5
:100B900011242F933F934F935F936F937F938F9382
:100BA0009F93AF93BF93EF93FF9381E992E00E94ED
:100BB0008804FF91EF91BF91AF919F918F917F91A9
:100BC0006F915F914F913F912F910F900FBE0F90BA
:100BD0001F90189581E992E00E944D0421E0892B35
:100BE00009F420E0822F089510929402109293024B
:100BF00088EE93E0A0E0B0E0809395029093960297
:100C0000A0939702B093980283E692E090939202A9
:100C10008093910285EC90E090939E0280939D02D8
:100C200084EC90E09093A00280939F0280EC90E08F
:100C30009093A2028093A10281EC90E09093A40291
:100C40008093A30282EC90E09093A6028093A50289
:100C500086EC90E09093A8028093A7021092AA02DB
:100C60001092AB021092AC021092AD020895CF9296
:100C7000DF92EF92FF920F931F93CF93DF937C014C
:100C80006A01EB0100E010E00C151D0571F069919F
:100C9000D701ED91FC910190F081E02DC7010995FC
:100CA000892B19F00F5F1F4FEFCFC801DF91CF9154
:100CB0001F910F91FF90EF90DF90CF9008956115F5
:100CC000710581F0DB010D900020E9F7AD01415085
:100CD0005109461B570BDC01ED91FC910280F38119
:100CE000E02D099480E090E00895DC01ED91FC9105
:100CF000DB0114964D915C9115976D917C9102806A
:100D0000F381E02D09940C945F066FE672E00C9479
:100D10005F060F931F93CF93DF93EC010E9475063C
:100D20008C01CE010E948506800F911FDF91CF912B
:100D30001F910F9108950F931F93CF93DF93EC01B1
:100D40000E945F068C01CE010E948506800F911FD4
:100D5000DF91CF911F910F9108950F931F93CF9320
:100D6000DF93EC010E94FA02688779878A879B8764
:100D7000E881F9810680F781E02DCE01099597FF82
:100D800015C00E94FA02088519852A853B85601BDB
:100D9000710B820B930B0C811D812E813F8160179B
:100DA00071078207930720F38FEF9FEFDF91CF91B9
:100DB0001F910F9108950F931F93CF93DF93EC0131
:100DC0008B0161E772E00E946307C8010E94AD06D3
:100DD00097FD05C0682FCE010E940708F6CFCE010F
:100DE000DF91CF911F910F910895FC018081918136
:100DF0000C940A09CF93DF93EC01888199810097C5
:100E000011F00E940A09198218821D821C821B821D
:100E10001A82DF91CF9108950F931F93CF93DF93A1
:100E2000EC018B016F5F7F4F888199810E94990946
:100E3000009731F0998388831B830A8381E001C086
:100E400080E0DF91CF911F910F910895CF93DF93B1
:100E5000EC0188819981892B29F08A819B818617F1
:100E6000970760F4CE010E940C07882341F08C8123
:100E70009D81892B19F4E881F981108281E0DF914D
:100E8000CF910895EF92FF920F931F93CF93DF932B
:100E9000EC017B018A01BA010E942607811104C07E
:100EA000CE010E94FA0607C01D830C83B70188811A
:100EB00099810E94750ACE01DF91CF911F910F9108
:100EC000FF90EF900895FC0111821082138212822C
:100ED000158214826115710559F0FB010190002003
:100EE000E9F7AF0141505109461B570B0C944207DB
:100EF00008950F931F93CF93DF938C01EB01FC01B7
:100F000080819181009799F0428153812C813D81AC
:100F10004217530750F0688179810E94750A8C81CD
:100F20009D81F8019583848313C00E940A098881FA
:100F30009981F801918380838A819B819383828345
:100F40008C819D8195838483198218821B821A82E9
:100F50001D821C82DF91CF911F910F910895CF9335
:100F6000DF93EC01FB018617970761F060817181C7
:100F70006115710529F0448155810E94420702C024
:100F80000E94FA06CE01DF91CF910895FC011182F3
:100F9000108213821282158214820C94AF07CF93B1
:100FA000DF93EC018617970711F00E947907CE01B5
:100FB000DF91CF910895EF92FF920F931F93CF93FC
:100FC000DF93EC017B010C811D816115710511F42A
:100FD00080E016C04115510591F0040F151FB801AE
:100FE0000E9426078823A1F3288139818C819D8165
:100FF000B701820F931F0E94750A1D830C8381E045
:10100000DF91CF911F910F91FF90EF900895CF93B3
:10101000DF9300D0CDB7DEB769831A8241E050E09C
:10102000BE016F5F7F4F0E94DB070F900F90DF9133
:10103000CF910895FC0124813581232B31F421E0E7
:1010400061157105A1F0FB0108C0FC01808191814F
:101050006115710531F421E0FC018081882339F0AC
:1010600005C00E946C0A21E0892B09F020E0822F44
:10107000089508950E9451030E9439080E94F401C6
:10108000CAE7D4E00E9426022097E1F30E947A0486
:10109000F9CF0895A1E21A2EAA1BBB1BFD010DC0BA
:1010A000AA1FBB1FEE1FFF1FA217B307E407F50718
:1010B00020F0A21BB30BE40BF50B661F771F881FF4
:1010C000991F1A9469F760957095809590959B018A
:1010D000AC01BD01CF010895EE0FFF1F0590F49103
:1010E000E02D0994CF93DF938230910510F482E0D4
:1010F00090E0E0913003F091310320E030E0A0E097
:10110000B0E0309739F14081518148175907B8F064
:101110004817590771F482819381109729F013962B
:101120009C938E9312972CC090933103809330033D
:1011300027C02115310531F04217530718F0A901D6
:10114000DB0101C0EF019A01BD01DF010280F381E3
:10115000E02DD7CF21153105F9F0281B390B2430AC
:10116000310580F48A819B816115710521F0FB01B5
:101170009383828304C09093310380933003FE01F4
:10118000329644C0FE01E20FF31F819391932250E7
:101190003109398328833AC020912E0330912F03DF
:1011A000232B41F4209102013091030130932F034E
:1011B00020932E032091000130910101211531056A
:1011C00041F42DB73EB74091040150910501241B15
:1011D000350BE0912E03F0912F03E217F307A0F4F3
:1011E0002E1B3F0B2817390778F0AC014E5F5F4F7D
:1011F0002417350748F04E0F5F1F50932F0340937D
:101200002E038193919302C0E0E0F0E0CF01DF91E3
:10121000CF910895CF93DF93009709F487C0FC0125
:10122000329713821282C0913003D09131032097FC
:1012300081F420813181280F391F80912E039091F4
:101240002F038217930779F5F0932F03E0932E0372
:101250006DC0DE0120E030E0AE17BF0750F41296FB
:101260004D915C9113979D014115510509F1DA01EA
:10127000F3CFB383A28340815181840F951F8A17D6
:101280009B0771F48D919C911197840F951F029685
:101290009183808312968D919C911397938382837F
:1012A0002115310529F4F0933103E09330033EC05A
:1012B000D9011396FC93EE9312974D915D91A40F73
:1012C000B51FEA17FB0779F480819181840F951F80
:1012D0000296D90111969C938E93828193811396E5
:1012E0009C938E931297E0E0F0E08A819B810097B7
:1012F00019F0FE01EC01F9CFCE0102962881398167
:10130000820F931F20912E0330912F032817390746
:1013100069F4309729F4109231031092300302C01F
:1013200013821282D0932F03C0932E03DF91CF91AB
:101330000895A0E0B0E0EFE9F9E00C94800AEC0138
:10134000CB01209719F40E947208B8C0FE01E60F85
:10135000F71F9E0122503109E217F30708F4ACC0D1
:10136000D9010D911C91119706171707B8F0053098
:10137000110508F49FC0A8014450510946175707AA
:1013800008F498C002501109061B170B0193119322
:101390006D937C93CF010E940A098CC05B01A01A57
:1013A000B10A4E01800E911EA0913003B09131031D
:1013B000612C712C60E070E0109709F449C0A81509
:1013C000B905C9F5ED90FC901197670142E0C40E94
:1013D000D11CCA14DB0478F147018A189B08640108
:1013E00042E0C40ED11C1296BC9012971396AC9199
:1013F000B5E0CB16D10440F0B282A3839182808203
:10140000D9018D939C9309C00E5F1F4F0E0D1F1DB8
:10141000F90111830083EB2DFA2F6115710531F06D
:10142000DB011396FC93EE93129744C0F0933103C3
:10143000E09330033FC06D917C911197661677065B
:1014400008F43B01BD0112960D90BC91A02DB4CFC4
:1014500060912E0370912F0368157905E9F46816E1
:101460007906D0F4409100015091010141155105D8
:1014700041F44DB75EB76091040170910501461BC0
:10148000570BE417F507C0F4F0932F03E0932E03F6
:10149000F901918380830EC00E9472087C0100973D
:1014A00059F0A801BE010E94630ACE010E940A09F8
:1014B000C70104C0CE0102C080E090E0CDB7DEB726
:1014C000EEE00C949C0AFB01DC0102C001900D923D
:1014D00041505040D8F70895FB01DC018D910190F7
:1014E00080190110D9F3990B0895FB01DC010190DB
:1014F0000D920020E1F708952F923F924F925F9254
:101500006F927F928F929F92AF92BF92CF92DF9213
:10151000EF92FF920F931F93CF93DF93CDB7DEB778
:10152000CA1BDB0B0FB6F894DEBF0FBECDBF09940C
:101530002A88398848885F846E847D848C849B8463
:10154000AA84B984C884DF80EE80FD800C811B8171
:10155000AA81B981CE0FD11D0FB6F894DEBF0FBEA0
:10156000CDBFED01089510E0C6ECD0E004C0FE014F
:101570000E946E082296C83CD107C9F7F894FFCFA5
:101580000000320380000B000C0007000600020080
:101590006B6579206973204F4E20616E6420706FF7
:1015A00077657220737570706C79206973204F4E67
:1015B0000020206B6579206973204F464620616EBC
:1015C0006420706F77657220737570706C79206914
:1015D00073204F4646202000202062696B65204F13
:1015E0004E4E2E2E2E0062696B65206F666600627D
:1015F0006C7565746F6F7468202066756E637469AE
:101600006F6E2069732063616C6C6564203A2020E2
:1016100000796F75722070617373776F72642069DF
:101620007320696E636F727265637420706C65619C
:10163000736520656E74657220636F727265637482
:101640002070617373776F65643A202E2E2E2E0002
:10165000696E7369646520706173732066756E636B
:1016600074696F6E0077454C434F4D4520494E20BD
:101670005345434355524954592053595354454DAA
:1016800020534F4C5554494F4E532E2E2E203A0086
:10169000696E73696465206E6F7420736572696129
:1016A0006C00564950494E0053544F50005041531E
:1016B0005300796F75722070617373776F72642055
:1016C000697320636F727265637420594F552048A7
:1016D000415645204C4F47494E203A2E2E2E0000B1
:1016E000000000CB0437064D0466045804A9040D1D
:0E16F0000A006E616E00696E66006F7666001D
:107E0000112484B714BE81FFF0D085E080938100F7
:107E100082E08093C00088E18093C10086E0809377
:107E2000C20080E18093C4008EE0C9D0259A86E02C
:107E300020E33CEF91E0309385002093840096BBD3
:107E4000B09BFECF1D9AA8958150A9F7CC24DD24C4
:107E500088248394B5E0AB2EA1E19A2EF3E0BF2EE7
:107E6000A2D0813461F49FD0082FAFD0023811F036
:107E7000013811F484E001C083E08DD089C08234E0
:107E800011F484E103C0853419F485E0A6D080C0E4
:107E9000853579F488D0E82EFF2485D0082F10E0AE
:107EA000102F00270E291F29000F111F8ED06801E7
:107EB0006FC0863521F484E090D080E0DECF843638
:107EC00009F040C070D06FD0082F6DD080E0C81688
:107ED00080E7D80618F4F601B7BEE895C0E0D1E017
:107EE00062D089930C17E1F7F0E0CF16F0E7DF06D8
:107EF00018F0F601B7BEE89568D007B600FCFDCFD4
:107F0000A601A0E0B1E02C9130E011968C91119780
:107F100090E0982F8827822B932B1296FA010C0160
:107F200087BEE89511244E5F5F4FF1E0A038BF0790
:107F300051F7F601A7BEE89507B600FCFDCF97BE46
:107F4000E89526C08437B1F42ED02DD0F82E2BD052
:107F50003CD0F601EF2C8F010F5F1F4F84911BD097
:107F6000EA94F801C1F70894C11CD11CFA94CF0C13
:107F7000D11C0EC0853739F428D08EE10CD085E9AC
:107F80000AD08FE07ACF813511F488E018D01DD067
:107F900080E101D065CF982F8091C00085FFFCCF94
:107FA0009093C60008958091C00087FFFCCF809118
:107FB000C00084FD01C0A8958091C6000895E0E648
:107FC000F0E098E1908380830895EDDF803219F02E
:107FD00088E0F5DFFFCF84E1DECF1F93182FE3DFCA
:107FE0001150E9F7F2DF1F91089580E0E8DFEE27F6
:047FF000FF270994CA
:027FFE00040479
:0400000300007E007B
:00000001FF
