:100000000C9462000C948A000C948A000C948A0070
:100010000C948A000C948A000C948A000C948A0038
:100020000C948A000C948A000C948A000C948A0028
:100030000C948A000C948A000C948A000C948A0018
:100040000C94D2000C948A000C94A8030C94DA034C
:100050000C948A000C948A000C948A000C948A00F8
:100060000C948A000C948A00000000080002010031
:100070000003040700000000000000000102040863
:100080001020408001020408102001020408102002
:10009000040404040404040402020202020203032E
:1000A00003030303000000002300260029000000D2
:1000B0000000250028002B0000000000240027007D
:1000C0002A000A0411241FBECFEFD8E0DEBFCDBF47
:1000D00011E0A0E0B1E0E0E4FBE002C005900D9289
:1000E000A035B107D9F721E0A0E5B1E001C01D922C
:1000F000A83FB207E1F710E0C4ECD0E004C02297BB
:10010000FE010E949A05C23CD107C9F70E9466050C
:100110000C949E050C94000026E040E855E260E057
:1001200070E08BE591E00E94460361E0809102015E
:100130000E94CB0160E0809100010C94CB0161E052
:10014000809102010E940402809100010E943A0203
:1001500090935101809350014AE050E0BC018BE53F
:1001600091E00E944D0580915001909151010197BD
:1001700039F464E071E08BE591E00E94980406C0D8
:100180006BE171E08BE591E00E948B0468E171E026
:100190008BE591E00E94980460ED77E080E090E0CC
:1001A0000C943F011F920F920FB60F9211242F93C0
:1001B0003F938F939F93AF93BF93809153019091FF
:1001C0005401A0915501B09156013091520123E0A4
:1001D000230F2D3720F40196A11DB11D05C026E87F
:1001E000230F0296A11DB11D20935201809353014C
:1001F00090935401A0935501B093560180915701FB
:1002000090915801A0915901B0915A010196A11DF8
:10021000B11D8093570190935801A0935901B09359
:100220005A01BF91AF919F918F913F912F910F9064
:100230000FBE0F901F9018953FB7F894809157010B
:1002400090915801A0915901B0915A0126B5A89BEF
:1002500005C02F3F19F00196A11DB11D3FBF6627B4
:10026000782F892F9A2F620F711D811D911D42E0F9
:10027000660F771F881F991F4A95D1F70895CF926F
:10028000DF92EF92FF92CF93DF936B017C010E948C
:100290001C01EB01C114D104E104F10489F00E94B6
:1002A00075050E941C016C1B7D0B683E734090F32A
:1002B00081E0C81AD108E108F108C851DC4FEACF43
:1002C000DF91CF91FF90EF90DF90CF9008957894D9
:1002D00084B5826084BD84B5816084BD85B582604B
:1002E00085BD85B5816085BDEEE6F0E080818160E9
:1002F0008083E1E8F0E010828081826080838081E9
:1003000081608083E0E8F0E0808181608083E1EBC0
:10031000F0E0808184608083E0EBF0E080818160A8
:100320008083EAE7F0E0808184608083808182605E
:100330008083808181608083808180688083109247
:10034000C1000895833081F028F4813099F0823023
:10035000A1F008958730A9F08830B9F08430D1F445
:10036000809180008F7D03C0809180008F77809383
:100370008000089584B58F7702C084B58F7D84BDD9
:1003800008958091B0008F7703C08091B0008F7D79
:100390008093B0000895CF93DF9390E0FC01E45880
:1003A000FF4F2491FC01E057FF4F8491882349F1CE
:1003B00090E0880F991FFC01E854FF4FA591B4917C
:1003C00082559F4FFC01C591D4919FB7611108C020
:1003D000F8948C91209582238C93888182230AC083
:1003E000623051F4F8948C91322F309583238C93A2
:1003F0008881822B888304C0F8948C91822B8C9303
:100400009FBFDF91CF9108950F931F93CF93DF93F9
:100410001F92CDB7DEB7282F30E0F901E859FF4F22
:100420008491F901E458FF4F1491F901E057FF4F0F
:1004300004910023C9F0882321F069830E94A2015E
:100440006981E02FF0E0EE0FFF1FE255FF4FA5910D
:10045000B4919FB7F8948C91611103C010958123DA
:1004600001C0812B8C939FBF0F90DF91CF911F9183
:100470000F910895CF93DF93282F30E0F901E859C9
:10048000FF4F8491F901E458FF4FD491F901E057EF
:10049000FF4FC491CC2391F081110E94A201EC2F57
:1004A000F0E0EE0FFF1FEC55FF4FA591B4912C919A
:1004B0002D2381E090E021F480E002C080E090E014
:1004C000DF91CF910895FC01818D228D90E0805CB9
:1004D0009F4F821B91098F7399270895FC01918D7D
:1004E000828D981731F0828DE80FF11D858D90E097
:1004F00008958FEF9FEF0895FC01918D828D9817DD
:1005000061F0828DDF01A80FB11D5D968C91928DF7
:100510009F5F9F73928F90E008958FEF9FEF0895F4
:1005200080E094E0892B49F080E090E0892B29F06D
:100530000E94000481110C9400000895FC01848D38
:10054000DF01A80FB11DA35ABF4F2C91848D90E0FD
:1005500001968F739927848FA689B7892C93A089D8
:10056000B1898C9180648C93938D848D981306C08F
:100570000288F389E02D80818F7D80830895CF9359
:10058000DF93EC01888D8823C9F0EA89FB8980819B
:1005900085FD05C0A889B9898C9186FD0FC00FB66D
:1005A00007FCF5CF808185FFF2CFA889B9898C91AE
:1005B00085FFEDCFCE010E949E02E7CFDF91CF9164
:1005C0000895CF92DF92FF920F931F93CF93DF9303
:1005D0001F92CDB7DEB76C0181E0D60158968C939F
:1005E00058975B969C915B975C968C915C9798135F
:1005F00007C05096ED91FC915197808185FD2EC0EA
:10060000F601038D10E00F5F1F4F0F731127F02EBF
:10061000F601848DF81211C00FB607FCF9CFD60190
:100620005096ED91FC915197808185FFF1CFC601E5
:1006300069830E949E026981EBCF838DE80FF11DD3
:10064000E35AFF4F6083D6015B960C935B975296FB
:10065000ED91FC915397808180620CC0D601569633
:10066000ED91FC91579760835096ED91FC915197D5
:1006700080818064808381E090E00F90DF91CF9152
:100680001F910F91FF90DF90CF900895BF92CF926E
:10069000DF92EF92FF92CF93DF93EC016A017B012F
:1006A000B22EE889F98982E08083411581EE5807EE
:1006B00061057105A1F060E079E08DE390E0A701AC
:1006C00096010E947605215031094109510956953C
:1006D000479537952795211580E1380798F0E889E7
:1006E000F989108260E874E88EE190E0A701960134
:1006F0000E947605215031094109510956954795C7
:1007000037952795EC85FD853083EE85FF85208321
:10071000188EEC89FD89B082EA89FB89808180612D
:100720008083EA89FB89808188608083EA89FB89EC
:10073000808180688083EA89FB8980818F7D8083C6
:10074000DF91CF91FF90EF90DF90CF90BF90089511
:100750001F920F920FB60F9211242F938F939F9396
:10076000EF93FF93E0916B01F0916C018081E09138
:100770007101F091720182FD12C09081809174012B
:100780008F5F8F7320917501821751F0E091740192
:10079000F0E0E55AFE4F958F8093740101C080818F
:1007A000FF91EF919F918F912F910F900FBE0F901E
:1007B0001F9018951F920F920FB60F9211242F932E
:1007C0003F934F935F936F937F938F939F93AF93D9
:1007D000BF93EF93FF938BE591E00E949E02FF9100
:1007E000EF91BF91AF919F918F917F916F915F91A9
:1007F0004F913F912F910F900FBE0F901F90189522
:100800008BE591E00E94630221E0892B09F420E04E
:10081000822F089510925E0110925D0188EE93E0A0
:10082000A0E0B0E080935F0190936001A09361012C
:10083000B093620182E391E090935C0180935B014D
:1008400085EC90E0909368018093670184EC90E0E0
:1008500090936A018093690180EC90E090936C0121
:1008600080936B0181EC90E090936E0180936D0119
:1008700082EC90E09093700180936F0186EC90E0A1
:10088000909372018093710110927401109275011E
:1008900010927601109277010895CF92DF92EF9235
:1008A000FF920F931F93CF93DF937C016A01EB01BB
:1008B00000E010E00C151D0571F06991D701ED9174
:1008C000FC910190F081E02DC7010995892B19F069
:1008D0000F5F1F4FEFCFC801DF91CF911F910F9195
:1008E000FF90EF90DF90CF9008956115710581F032
:1008F000DB010D900020E9F7AD0141505109461B85
:10090000570BDC01ED91FC910280F381E02D0994FD
:1009100080E090E008950C947504DC01ED91FC9169
:100920000190F081E02D09946EE371E00C94750460
:100930000F931F93CF93DF93EC010E9475048C01FA
:10094000CE010E949404800F911FDF91CF911F91DF
:100950000F9108958F929F92AF92BF92CF92DF92A4
:10096000EF92FF920F931F93CF93DF93CDB7DEB734
:10097000A1970FB6F894DEBF0FBECDBF7C01C42E89
:10098000E52FCB01D22E19A221E02D1510F02AE07F
:10099000D22E8E010F5D1F4F8D2C912CA12CB12CCE
:1009A0006C2D7E2FA50194010E9476058C2DD29E80
:1009B00080191124015011098A3014F4805D01C09E
:1009C000895CF8018083211531054105510521F02D
:1009D000C22EE32FCA01E4CFB801C7010E947504FB
:1009E000A1960FB6F894DEBF0FBECDBFDF91CF91B9
:1009F0001F910F91FF90EF90DF90CF90BF90AF903D
:100A00009F908F900895CF92DF92EF92FF920F9375
:100A10001F93CF93DF93EC016A017B012115310510
:100A200079F4E881F9810190F081E02D642FDF9164
:100A3000CF911F910F91FF90EF90DF90CF9009948D
:100A40002A303105E9F477FF1AC06DE20E948D0467
:100A50008C0144275527BA014C195D096E097F099D
:100A60002AE0CE010E94AA04800F911FDF91CF914E
:100A70001F910F91FF90EF90DF90CF9008952AE0A3
:100A8000B701A601CE01DF91CF911F910F91FF9089
:100A9000EF90DF90CF900C94AA040F931F93CF9305
:100AA000DF93EC019A01AB01662757FD6095762F25
:100AB0000E9403058C01CE010E949404800F911FB7
:100AC000DF91CF911F910F91089508950E946701C2
:100AD0000E9465050E948C00C0E9D2E00E949F0040
:100AE0002097E1F30E949002F9CF0895A1E21A2E17
:100AF000AA1BBB1BFD010DC0AA1FBB1FEE1FFF1FC2
:100B0000A217B307E407F50720F0A21BB30BE40B11
:100B1000F50B661F771F881F991F1A9469F7609558
:100B20007095809590959B01AC01BD01CF01089512
:100B3000EE0FFF1F0590F491E02D0994F894FFCF7C
:100B40000A000D006469676974616C2070696E2029
:100B500069732068696768002020006469676974A8
:100B6000616C2070696E206973206C6F77000000E3
:100B70000000E1024D0463027C026E02BF020D0A16
:100B8000006E616E00696E66006F7666002E000072
:00000001FF
